{
  "_format": "hh-sol-artifact-1",
  "contractName": "OnTix",
  "sourceName": "contracts/OnTix.sol",
  "abi": [
    {
      "inputs": [],
      "stateMutability": "nonpayable",
      "type": "constructor"
    },
    {
      "anonymous": false,
      "inputs": [
        {
          "indexed": true,
          "internalType": "address",
          "name": "owner",
          "type": "address"
        },
        {
          "indexed": true,
          "internalType": "address",
          "name": "approved",
          "type": "address"
        },
        {
          "indexed": true,
          "internalType": "uint256",
          "name": "tokenId",
          "type": "uint256"
        }
      ],
      "name": "Approval",
      "type": "event"
    },
    {
      "anonymous": false,
      "inputs": [
        {
          "indexed": true,
          "internalType": "address",
          "name": "owner",
          "type": "address"
        },
        {
          "indexed": true,
          "internalType": "address",
          "name": "operator",
          "type": "address"
        },
        {
          "indexed": false,
          "internalType": "bool",
          "name": "approved",
          "type": "bool"
        }
      ],
      "name": "ApprovalForAll",
      "type": "event"
    },
    {
      "anonymous": false,
      "inputs": [
        {
          "indexed": false,
          "internalType": "uint256",
          "name": "_fromTokenId",
          "type": "uint256"
        },
        {
          "indexed": false,
          "internalType": "uint256",
          "name": "_toTokenId",
          "type": "uint256"
        }
      ],
      "name": "BatchMetadataUpdate",
      "type": "event"
    },
    {
      "anonymous": false,
      "inputs": [
        {
          "indexed": false,
          "internalType": "string",
          "name": "eventId",
          "type": "string"
        },
        {
          "indexed": true,
          "internalType": "address",
          "name": "creator",
          "type": "address"
        }
      ],
      "name": "EventCreated",
      "type": "event"
    },
    {
      "anonymous": false,
      "inputs": [
        {
          "indexed": false,
          "internalType": "string",
          "name": "eventId",
          "type": "string"
        },
        {
          "indexed": true,
          "internalType": "address",
          "name": "creator",
          "type": "address"
        },
        {
          "indexed": false,
          "internalType": "uint256",
          "name": "amount",
          "type": "uint256"
        }
      ],
      "name": "EventProceedsWithdrawn",
      "type": "event"
    },
    {
      "anonymous": false,
      "inputs": [
        {
          "indexed": false,
          "internalType": "uint256",
          "name": "_tokenId",
          "type": "uint256"
        }
      ],
      "name": "MetadataUpdate",
      "type": "event"
    },
    {
      "anonymous": false,
      "inputs": [
        {
          "indexed": true,
          "internalType": "address",
          "name": "previousOwner",
          "type": "address"
        },
        {
          "indexed": true,
          "internalType": "address",
          "name": "newOwner",
          "type": "address"
        }
      ],
      "name": "OwnershipTransferred",
      "type": "event"
    },
    {
      "anonymous": false,
      "inputs": [
        {
          "indexed": true,
          "internalType": "uint256",
          "name": "ticketId",
          "type": "uint256"
        },
        {
          "indexed": false,
          "internalType": "uint256",
          "name": "price",
          "type": "uint256"
        }
      ],
      "name": "TicketListedForResale",
      "type": "event"
    },
    {
      "anonymous": false,
      "inputs": [
        {
          "indexed": true,
          "internalType": "uint256",
          "name": "ticketId",
          "type": "uint256"
        },
        {
          "indexed": true,
          "internalType": "address",
          "name": "buyer",
          "type": "address"
        }
      ],
      "name": "TicketPurchased",
      "type": "event"
    },
    {
      "anonymous": false,
      "inputs": [
        {
          "indexed": true,
          "internalType": "uint256",
          "name": "ticketId",
          "type": "uint256"
        },
        {
          "indexed": false,
          "internalType": "address",
          "name": "from",
          "type": "address"
        },
        {
          "indexed": false,
          "internalType": "address",
          "name": "to",
          "type": "address"
        }
      ],
      "name": "TicketResold",
      "type": "event"
    },
    {
      "anonymous": false,
      "inputs": [
        {
          "indexed": true,
          "internalType": "uint256",
          "name": "ticketId",
          "type": "uint256"
        },
        {
          "indexed": false,
          "internalType": "address",
          "name": "from",
          "type": "address"
        },
        {
          "indexed": false,
          "internalType": "address",
          "name": "to",
          "type": "address"
        }
      ],
      "name": "TicketTransferred",
      "type": "event"
    },
    {
      "anonymous": false,
      "inputs": [
        {
          "indexed": true,
          "internalType": "uint256",
          "name": "ticketId",
          "type": "uint256"
        }
      ],
      "name": "TicketValidated",
      "type": "event"
    },
    {
      "anonymous": false,
      "inputs": [
        {
          "indexed": true,
          "internalType": "address",
          "name": "from",
          "type": "address"
        },
        {
          "indexed": true,
          "internalType": "address",
          "name": "to",
          "type": "address"
        },
        {
          "indexed": true,
          "internalType": "uint256",
          "name": "tokenId",
          "type": "uint256"
        }
      ],
      "name": "Transfer",
      "type": "event"
    },
    {
      "inputs": [
        {
          "internalType": "address",
          "name": "to",
          "type": "address"
        },
        {
          "internalType": "uint256",
          "name": "tokenId",
          "type": "uint256"
        }
      ],
      "name": "approve",
      "outputs": [],
      "stateMutability": "nonpayable",
      "type": "function"
    },
    {
      "inputs": [
        {
          "internalType": "address",
          "name": "owner",
          "type": "address"
        }
      ],
      "name": "balanceOf",
      "outputs": [
        {
          "internalType": "uint256",
          "name": "",
          "type": "uint256"
        }
      ],
      "stateMutability": "view",
      "type": "function"
    },
    {
      "inputs": [
        {
          "internalType": "uint256[]",
          "name": "ticketIds",
          "type": "uint256[]"
        }
      ],
      "name": "buyResaleTickets",
      "outputs": [],
      "stateMutability": "payable",
      "type": "function"
    },
    {
      "inputs": [
        {
          "internalType": "string",
          "name": "eventId",
          "type": "string"
        },
        {
          "internalType": "uint256",
          "name": "quantity",
          "type": "uint256"
        }
      ],
      "name": "buyTickets",
      "outputs": [],
      "stateMutability": "payable",
      "type": "function"
    },
    {
      "inputs": [
        {
          "internalType": "string",
          "name": "id",
          "type": "string"
        },
        {
          "internalType": "uint256",
          "name": "startTime",
          "type": "uint256"
        },
        {
          "internalType": "uint256",
          "name": "endTime",
          "type": "uint256"
        },
        {
          "internalType": "uint256",
          "name": "ticketPrice",
          "type": "uint256"
        },
        {
          "internalType": "uint256",
          "name": "maxTickets",
          "type": "uint256"
        },
        {
          "internalType": "uint256",
          "name": "resaleStart",
          "type": "uint256"
        },
        {
          "internalType": "uint256",
          "name": "resaleEnd",
          "type": "uint256"
        },
        {
          "internalType": "uint256",
          "name": "resalePriceCap",
          "type": "uint256"
        },
        {
          "internalType": "string[]",
          "name": "tokenURIs",
          "type": "string[]"
        }
      ],
      "name": "createEvent",
      "outputs": [],
      "stateMutability": "nonpayable",
      "type": "function"
    },
    {
      "inputs": [
        {
          "internalType": "string",
          "name": "",
          "type": "string"
        }
      ],
      "name": "eventProceeds",
      "outputs": [
        {
          "internalType": "uint256",
          "name": "",
          "type": "uint256"
        }
      ],
      "stateMutability": "view",
      "type": "function"
    },
    {
      "inputs": [
        {
          "internalType": "string",
          "name": "",
          "type": "string"
        }
      ],
      "name": "events",
      "outputs": [
        {
          "internalType": "uint256",
          "name": "startTime",
          "type": "uint256"
        },
        {
          "internalType": "uint256",
          "name": "endTime",
          "type": "uint256"
        },
        {
          "internalType": "uint256",
          "name": "ticketPrice",
          "type": "uint256"
        },
        {
          "internalType": "uint256",
          "name": "maxTickets",
          "type": "uint256"
        },
        {
          "internalType": "uint256",
          "name": "resaleStart",
          "type": "uint256"
        },
        {
          "internalType": "uint256",
          "name": "resaleEnd",
          "type": "uint256"
        },
        {
          "internalType": "uint256",
          "name": "resalePriceCap",
          "type": "uint256"
        },
        {
          "internalType": "address",
          "name": "creator",
          "type": "address"
        },
        {
          "internalType": "uint256",
          "name": "ticketsSold",
          "type": "uint256"
        }
      ],
      "stateMutability": "view",
      "type": "function"
    },
    {
      "inputs": [
        {
          "internalType": "uint256",
          "name": "tokenId",
          "type": "uint256"
        }
      ],
      "name": "getApproved",
      "outputs": [
        {
          "internalType": "address",
          "name": "",
          "type": "address"
        }
      ],
      "stateMutability": "view",
      "type": "function"
    },
    {
      "inputs": [
        {
          "internalType": "uint256",
          "name": "tokenId",
          "type": "uint256"
        }
      ],
      "name": "getTokenURI",
      "outputs": [
        {
          "internalType": "string",
          "name": "",
          "type": "string"
        }
      ],
      "stateMutability": "view",
      "type": "function"
    },
    {
      "inputs": [
        {
          "internalType": "address",
          "name": "owner",
          "type": "address"
        },
        {
          "internalType": "address",
          "name": "operator",
          "type": "address"
        }
      ],
      "name": "isApprovedForAll",
      "outputs": [
        {
          "internalType": "bool",
          "name": "",
          "type": "bool"
        }
      ],
      "stateMutability": "view",
      "type": "function"
    },
    {
      "inputs": [
        {
          "internalType": "uint256",
          "name": "ticketId",
          "type": "uint256"
        },
        {
          "internalType": "uint256",
          "name": "price",
          "type": "uint256"
        }
      ],
      "name": "listForResale",
      "outputs": [],
      "stateMutability": "nonpayable",
      "type": "function"
    },
    {
      "inputs": [],
      "name": "name",
      "outputs": [
        {
          "internalType": "string",
          "name": "",
          "type": "string"
        }
      ],
      "stateMutability": "view",
      "type": "function"
    },
    {
      "inputs": [],
      "name": "nextEventId",
      "outputs": [
        {
          "internalType": "uint256",
          "name": "",
          "type": "uint256"
        }
      ],
      "stateMutability": "view",
      "type": "function"
    },
    {
      "inputs": [],
      "name": "nextTicketId",
      "outputs": [
        {
          "internalType": "uint256",
          "name": "",
          "type": "uint256"
        }
      ],
      "stateMutability": "view",
      "type": "function"
    },
    {
      "inputs": [
        {
          "internalType": "address",
          "name": "",
          "type": "address"
        },
        {
          "internalType": "address",
          "name": "",
          "type": "address"
        },
        {
          "internalType": "uint256",
          "name": "",
          "type": "uint256"
        },
        {
          "internalType": "bytes",
          "name": "",
          "type": "bytes"
        }
      ],
      "name": "onERC721Received",
      "outputs": [
        {
          "internalType": "bytes4",
          "name": "",
          "type": "bytes4"
        }
      ],
      "stateMutability": "nonpayable",
      "type": "function"
    },
    {
      "inputs": [],
      "name": "owner",
      "outputs": [
        {
          "internalType": "address",
          "name": "",
          "type": "address"
        }
      ],
      "stateMutability": "view",
      "type": "function"
    },
    {
      "inputs": [
        {
          "internalType": "uint256",
          "name": "tokenId",
          "type": "uint256"
        }
      ],
      "name": "ownerOf",
      "outputs": [
        {
          "internalType": "address",
          "name": "",
          "type": "address"
        }
      ],
      "stateMutability": "view",
      "type": "function"
    },
    {
      "inputs": [],
      "name": "renounceOwnership",
      "outputs": [],
      "stateMutability": "nonpayable",
      "type": "function"
    },
    {
      "inputs": [
        {
          "internalType": "uint256",
          "name": "",
          "type": "uint256"
        }
      ],
      "name": "resalePrice",
      "outputs": [
        {
          "internalType": "uint256",
          "name": "",
          "type": "uint256"
        }
      ],
      "stateMutability": "view",
      "type": "function"
    },
    {
      "inputs": [
        {
          "internalType": "uint256",
          "name": "",
          "type": "uint256"
        }
      ],
      "name": "resaleSeller",
      "outputs": [
        {
          "internalType": "address",
          "name": "",
          "type": "address"
        }
      ],
      "stateMutability": "view",
      "type": "function"
    },
    {
      "inputs": [
        {
          "internalType": "address",
          "name": "from",
          "type": "address"
        },
        {
          "internalType": "address",
          "name": "to",
          "type": "address"
        },
        {
          "internalType": "uint256",
          "name": "tokenId",
          "type": "uint256"
        }
      ],
      "name": "safeTransferFrom",
      "outputs": [],
      "stateMutability": "nonpayable",
      "type": "function"
    },
    {
      "inputs": [
        {
          "internalType": "address",
          "name": "from",
          "type": "address"
        },
        {
          "internalType": "address",
          "name": "to",
          "type": "address"
        },
        {
          "internalType": "uint256",
          "name": "tokenId",
          "type": "uint256"
        },
        {
          "internalType": "bytes",
          "name": "data",
          "type": "bytes"
        }
      ],
      "name": "safeTransferFrom",
      "outputs": [],
      "stateMutability": "nonpayable",
      "type": "function"
    },
    {
      "inputs": [
        {
          "internalType": "address",
          "name": "operator",
          "type": "address"
        },
        {
          "internalType": "bool",
          "name": "approved",
          "type": "bool"
        }
      ],
      "name": "setApprovalForAll",
      "outputs": [],
      "stateMutability": "nonpayable",
      "type": "function"
    },
    {
      "inputs": [
        {
          "internalType": "bytes4",
          "name": "interfaceId",
          "type": "bytes4"
        }
      ],
      "name": "supportsInterface",
      "outputs": [
        {
          "internalType": "bool",
          "name": "",
          "type": "bool"
        }
      ],
      "stateMutability": "view",
      "type": "function"
    },
    {
      "inputs": [],
      "name": "symbol",
      "outputs": [
        {
          "internalType": "string",
          "name": "",
          "type": "string"
        }
      ],
      "stateMutability": "view",
      "type": "function"
    },
    {
      "inputs": [
        {
          "internalType": "uint256",
          "name": "",
          "type": "uint256"
        }
      ],
      "name": "ticketMetadata",
      "outputs": [
        {
          "internalType": "string",
          "name": "eventId",
          "type": "string"
        },
        {
          "internalType": "bool",
          "name": "isUsed",
          "type": "bool"
        },
        {
          "internalType": "bool",
          "name": "isResold",
          "type": "bool"
        }
      ],
      "stateMutability": "view",
      "type": "function"
    },
    {
      "inputs": [
        {
          "internalType": "uint256",
          "name": "tokenId",
          "type": "uint256"
        }
      ],
      "name": "tokenURI",
      "outputs": [
        {
          "internalType": "string",
          "name": "",
          "type": "string"
        }
      ],
      "stateMutability": "view",
      "type": "function"
    },
    {
      "inputs": [
        {
          "internalType": "address",
          "name": "from",
          "type": "address"
        },
        {
          "internalType": "address",
          "name": "to",
          "type": "address"
        },
        {
          "internalType": "uint256",
          "name": "tokenId",
          "type": "uint256"
        }
      ],
      "name": "transferFrom",
      "outputs": [],
      "stateMutability": "nonpayable",
      "type": "function"
    },
    {
      "inputs": [
        {
          "internalType": "address",
          "name": "newOwner",
          "type": "address"
        }
      ],
      "name": "transferOwnership",
      "outputs": [],
      "stateMutability": "nonpayable",
      "type": "function"
    },
    {
      "inputs": [
        {
          "internalType": "address",
          "name": "to",
          "type": "address"
        },
        {
          "internalType": "uint256[]",
          "name": "ticketIds",
          "type": "uint256[]"
        }
      ],
      "name": "transferTickets",
      "outputs": [],
      "stateMutability": "nonpayable",
      "type": "function"
    },
    {
      "inputs": [
        {
          "internalType": "uint256",
          "name": "ticketId",
          "type": "uint256"
        }
      ],
      "name": "validateTicket",
      "outputs": [],
      "stateMutability": "nonpayable",
      "type": "function"
    },
    {
      "inputs": [
        {
          "internalType": "string",
          "name": "eventId",
          "type": "string"
        }
      ],
      "name": "withdrawEventProceeds",
      "outputs": [],
      "stateMutability": "nonpayable",
      "type": "function"
    }
  ],
  "bytecode": "0x60803462000352576001600160401b03906040818101838111838210176200033c578152600582526020916409edca8d2f60db1b83820152815193828501858110828211176200033c578352600385526209ea8b60eb1b8486015281518181116200033c576000948554916001948584811c9416801562000331575b838510146200031d578190601f94858111620002ca575b508390858311600114620002665789926200025a575b5050600019600383901b1c191690851b1786555b8651928311620002465783548481811c911680156200023b575b828210146200022757828111620001df575b5080918311600114620001785750849582939495926200016c575b5050600019600383901b1c191690821b1790555b60078054336001600160a01b03198216811790925591519290916001600160a01b0316907f8be0079c531659141344cd1fd0a4f28419497f9722a3daafe3b4186f6b6457e09080a3612c1f9081620003588239f35b01519050388062000103565b90601f198316968487528287209287905b898210620001c7575050838596979810620001ad575b505050811b01905562000117565b015160001960f88460031b161c191690553880806200019f565b80878596829496860151815501950193019062000189565b8487528187208380860160051c8201928487106200021d575b0160051c019085905b82811062000211575050620000e8565b88815501859062000201565b92508192620001f8565b634e487b7160e01b87526022600452602487fd5b90607f1690620000d6565b634e487b7160e01b86526041600452602486fd5b015190503880620000a8565b898052848a208894509190601f1984168b5b87828210620002b3575050841162000299575b505050811b018655620000bc565b015160001960f88460031b161c191690553880806200028b565b8385015186558b9790950194938401930162000278565b9091508880528389208580850160051c82019286861062000313575b918991869594930160051c01915b8281106200030457505062000092565b8b8155859450899101620002f4565b92508192620002e6565b634e487b7160e01b88526022600452602488fd5b93607f16936200007b565b634e487b7160e01b600052604160045260246000fd5b600080fdfe608080604052600436101561001357600080fd5b60003560e01c90816301ffc9a714611fdb575080630384ca4914611faf5780630415792e14611e28578063054ae7df14611d3757806306fdde0314611c94578063081812fc14611c76578063095ea7b314611ae257806314d2c6d114611899578063150b7a02146118765780631f7d863c1461166557806323b872dd146116415780633bb3a24d146115b857806342842e0e146115855780634540a39614610cf857806349f28eca14610cc35780636031a52f14610ca55780636352211e14610c7657806370a0823114610bcc578063715018a614610b715780638da5cb5b14610b4a57806395d89b4114610a7f5780639673d6a3146109d35780639f9d903a146109b5578063a22cb465146108db578063b88d4fde1461089d578063c87b56dd14610866578063cd11d3fe146104ed578063d579762214610375578063e985e9c51461031b578063ea05fc51146102b9578063f2fde38b146101e15763fb77ce941461017f57600080fd5b346101dc5760203660031901126101dc5760043567ffffffffffffffff81116101dc576101c960206101b68193369060040161216e565b816040519382858094519384920161218c565b8101600e81520301902054604051908152f35b600080fd5b346101dc5760203660031901126101dc576101fa6121d4565b6102026123ff565b6001600160a01b0380911690811561024f57600754826001600160a01b0319821617600755167f8be0079c531659141344cd1fd0a4f28419497f9722a3daafe3b4186f6b6457e0600080a3005b608460405162461bcd60e51b815260206004820152602660248201527f4f776e61626c653a206e6577206f776e657220697320746865207a65726f206160448201527f64647265737300000000000000000000000000000000000000000000000000006064820152fd5b346101dc5760203660031901126101dc57600435600052600b602052610301604060002060016102e882612359565b91015460ff6040519384936060855260608501906121af565b918181161515602085015260081c16151560408301520390f35b346101dc5760403660031901126101dc576103346121d4565b602435906001600160a01b03908183168093036101dc57166000526005602052604060002090600052602052602060ff604060002054166040519015158152f35b346101dc5760403660031901126101dc5761038e6121d4565b6024803567ffffffffffffffff81116101dc576103af903690600401612202565b9060005b82518110156104eb576103c68184612a86565b51336001600160a01b036103d9836124a2565b16036104a75790816104a292600052600b60209080825260019161040a60ff846040600020015460081c1615612b9e565b83600052818152610435600561042b6104266040600020612359565b6122f9565b0154421115612b53565b610440848a336126c8565b600084815291905260409081902091909101805461ff00191661010017905580513381526001600160a01b03881660208201527fd15524263ae66f75c1e604c47db6085085110f23ef7322b355179ac5e3b0783a91819081015b0390a2612a61565b6103b3565b60648360096040519162461bcd60e51b8352602060048401528201527f4e6f74206f776e657200000000000000000000000000000000000000000000006044820152fd5b005b60403660031901126101dc5760043567ffffffffffffffff81116101dc5761051990369060040161216e565b602480359060405183519060209081818188019461053881838861218c565b8101600a815203019020926005840154421161082357600884019361055e868654612afb565b6003820154106107e05760020154858102908082048714901517156107cb5734036107885760009360005b60095481108061077f575b156106f457306001600160a01b036105ab836124a2565b16148061060d575b6105c6575b6105c190612a61565b610589565b946106056105c1916105d98833306126c8565b33887f785f2865353ae960010300f584fc6c577b757a853af69a99c769df3c8232d3de600080a3612a61565b9590506105b8565b5080600052600b845260406000206040518581019181600082546106308161231f565b936001918b83821691826000146106d5575050600114610695575b5050610660925003601f1981018352826120f9565b5190208560405161068c87828d61067f8383019687925192839161218c565b81010380845201826120f9565b519020146105b3565b8a925060005281600020906000915b8583106106bc57505050610660928201018d8061064b565b81939294508054838689010152019201899185936106a4565b925093505061066094915060ff19168652801515028201018d8061064b565b509094808793950361073c576107239550610710908254612afb565b905560405193849283925192839161218c565b8101600e815203019020610738348254612afb565b9055005b606485601c886040519262461bcd60e51b845260048401528201527f4e6f7420656e6f75676820756e636c61696d6564207469636b657473000000006044820152fd5b50868610610594565b9060146064926040519262461bcd60e51b845260048401528201527f496e636f72726563742045544820616d6f756e740000000000000000000000006044820152fd5b50634e487b7160e01b60005260116004526000fd5b6064836012846040519262461bcd60e51b845260048401528201527f4e6f7420656e6f756768207469636b65747300000000000000000000000000006044820152fd5b9060196064926040519262461bcd60e51b845260048401528201527f5469636b65742073616c657320706572696f6420656e646564000000000000006044820152fd5b346101dc5760203660031901126101dc57610899610885600435612a17565b6040519182916020835260208301906121af565b0390f35b346101dc576104eb6108d66108b136612260565b926108c66108c1839493336125e9565b612506565b6108d18383836126c8565b61298f565b612577565b346101dc5760403660031901126101dc576108f46121d4565b60243590811515908183036101dc576001600160a01b031691823314610971576109439033600052600560205260406000208460005260205260406000209060ff801983541691151516179055565b6040519081527f17307eab39ab6107e8899845ad3d59bd9653f200f220920489ca2b5937696c3160203392a3005b606460405162461bcd60e51b815260206004820152601960248201527f4552433732313a20617070726f766520746f2063616c6c6572000000000000006044820152fd5b346101dc5760003660031901126101dc576020600854604051908152f35b346101dc5760203660031901126101dc5760043567ffffffffffffffff81116101dc57610a0c60206101b661012093369060040161216e565b8101600a81520301902080549060018101549060028101546003820154600483015460058401549160068501549360086001600160a01b0360078801541696015496604051988952602089015260408801526060870152608086015260a085015260c084015260e0830152610100820152f35b346101dc5760003660031901126101dc5760405160006001805490610aa38261231f565b80855291818116908115610b235750600114610aca575b61089984610885818603826120f9565b600081815292507fb10e2d527612073b26eecdfd717e6a320cf44b4afac2b0732d9fcbe2b7fa0cf65b828410610b0b57505050810160200161088582610aba565b80546020858701810191909152909301928101610af3565b60ff191660208087019190915292151560051b850190920192506108859150839050610aba565b346101dc5760003660031901126101dc5760206001600160a01b0360075416604051908152f35b346101dc5760003660031901126101dc57610b8a6123ff565b60006001600160a01b036007546001600160a01b03198116600755167f8be0079c531659141344cd1fd0a4f28419497f9722a3daafe3b4186f6b6457e08280a3005b346101dc5760203660031901126101dc576001600160a01b03610bed6121d4565b168015610c0c5760005260036020526020604060002054604051908152f35b608460405162461bcd60e51b815260206004820152602960248201527f4552433732313a2061646472657373207a65726f206973206e6f74206120766160448201527f6c6964206f776e657200000000000000000000000000000000000000000000006064820152fd5b346101dc5760203660031901126101dc576020610c946004356124a2565b6001600160a01b0360405191168152f35b346101dc5760003660031901126101dc576020600954604051908152f35b346101dc5760203660031901126101dc57600435600052600d60205260206001600160a01b0360406000205416604051908152f35b346101dc576101203660031901126101dc5760043567ffffffffffffffff81116101dc57610d2a90369060040161216e565b6101043567ffffffffffffffff81116101dc57366023820112156101dc578060040135610d56816121ea565b91610d6460405193846120f9565b8183526024602084019260051b820101903682116101dc5760248101925b82841061155557858560443560243510156115115760c43560a43510156114cd5760643560e43510611489576084358151036114455760243560c435116113db576040518061012081011067ffffffffffffffff610120830111176112505780610120849201604052602435815260443560208201526064356040820152608435606082015260a435608082015260c43560a082015260e43560c08201523360e0820152600061010082015260086101006040516020818651610e488183858b0161218c565b8101600a81520301902092805184556020810151600185015560408101516002850155606081015160038501556080810151600485015560a0810151600585015560c08101516006850155600784016001600160a01b0360e0830151166001600160a01b031982541617905501519101556000915b6084358310610f1257507f2b20c961d6d0daf3f50b080228f74d6eb895e4cd1b7eac76d725eb5c392533456040516020815280610eff339460208301906121af565b0390a2610f0d600854612a61565b600855005b60095492604051610f22816120dd565b600081523015611397576108d6610fe191610f5c610f568860005260026020526001600160a01b0360406000205416151590565b15612ab0565b610f7f610f568860005260026020526001600160a01b0360406000205416151590565b3060005260036020526040600020600181540190558660005260026020526040600020306001600160a01b0319825416179055863060007fddf252ad1be2c89b69c2b068fc378daa952ba7f163c4a11628f55a4df523b3ef8180a486306127ef565b610feb8183612a86565b5161100c8560005260026020526001600160a01b0360406000205416151590565b1561132d5784600052600660205260406000209080519067ffffffffffffffff821161125057819061103e845461231f565b601f81116112dd575b50602090601f831160011461127157600092611266575b50508160011b916000199060031b1c19161790555b7ff8e1a15aba9398e019f0b49df1a4fde98ee17ae345cb5f6b5e2c27f5033e8ce76020604051868152a16040519384606081011067ffffffffffffffff60608701111761125057606085016040528385526000602086015260006040860152600052600b602052604060002093805194855167ffffffffffffffff8111611250576110fe825461231f565b601f811161120c575b506020601f821160011461119957918160019260409461118798999a60009261118e575b5050600019600383901b1c191690831b1781555b019161115d60208201511515849060ff801983541691151516179055565b0151815461ff00191690151560081b61ff001617905560095461117f90612a61565b600955612a61565b9190610ebd565b015190508a8061112b565b8260005260206000209760005b601f19841681106111f457508261118797989960409593600195938694601f198116106111db575b505050811b01815561113f565b015160001960f88460031b161c191690558a80806111ce565b828201518a55600190990198602092830192016111a6565b826000526020600020601f830160051c810160208410611249575b601f830160051c8201811061123d575050611107565b60008155600101611227565b5080611227565b634e487b7160e01b600052604160045260246000fd5b01519050878061105e565b9250836000526020600020906000935b601f19841685106112c2576001945083601f198116106112a9575b505050811b019055611073565b015160001960f88460031b161c1916905587808061129c565b81810151835560209485019460019093019290910190611281565b909150836000526020600020601f840160051c810160208510611326575b90849392915b601f830160051c82018110611317575050611047565b60008155859450600101611301565b50806112fb565b608460405162461bcd60e51b815260206004820152602e60248201527f45524337323155524953746f726167653a2055524920736574206f66206e6f6e60448201527f6578697374656e7420746f6b656e0000000000000000000000000000000000006064820152fd5b606460405162461bcd60e51b815260206004820152602060248201527f4552433732313a206d696e7420746f20746865207a65726f20616464726573736044820152fd5b608460405162461bcd60e51b815260206004820152602360248201527f526573616c65206d75737420656e64206265666f7265206576656e742073746160448201527f72747300000000000000000000000000000000000000000000000000000000006064820152fd5b606460405162461bcd60e51b815260206004820152601f60248201527f546f6b656e55524973206d757374206d61746368206d61785469636b657473006044820152fd5b606460405162461bcd60e51b815260206004820152601860248201527f436170206d757374203e3d207469636b657420707269636500000000000000006044820152fd5b606460405162461bcd60e51b815260206004820152601560248201527f496e76616c696420726573616c652077696e646f7700000000000000000000006044820152fd5b606460405162461bcd60e51b815260206004820152601260248201527f496e76616c6964206576656e742074696d6500000000000000000000000000006044820152fd5b833567ffffffffffffffff81116101dc5760209161157a83926024369187010161216e565b815201930192610d82565b346101dc576104eb6108d6611599366122c4565b90604051926115a7846120dd565b600084526108c66108c184336125e9565b346101dc5760203660031901126101dc576004356115ec8160005260026020526001600160a01b0360406000205416151590565b156115fd5761088561089991612a17565b606460405162461bcd60e51b815260206004820152601460248201527f546f6b656e20646f6573206e6f742065786973740000000000000000000000006044820152fd5b346101dc576104eb611652366122c4565b916116606108c184336125e9565b6126c8565b346101dc5760403660031901126101dc57600435602435611698611688836124a2565b6001600160a01b03163314612b08565b81600052602090600b825260ff60016040600020015460081c166118325782600052600b82526116cb6040600020612359565b6040518360048351928281818701956116e581838961218c565b8101600a81520301902001544210159182611802575b50509050156117be5782600052600b8252600661171e6104266040600020612359565b0154811161177a57907f2d8cbebfd87cb19b7bed949f9c8d5a80d939133966ef331ac575d69160ea04659183600052600c825280604060002055600d82526040600020336001600160a01b0319825416179055604051908152a2005b6064826040519062461bcd60e51b82526004820152601160248201527f45786365656473207072696365206361700000000000000000000000000000006044820152fd5b6064826040519062461bcd60e51b82526004820152601660248201527f526573616c65206e6f7420616c6c6f776564206e6f77000000000000000000006044820152fd5b61181b925060059360405193849283925192839161218c565b8101600a81520301902001544211158083866116fb565b6064826040519062461bcd60e51b82526004820152601360248201527f416c7265616479207265736f6c64206f6e6365000000000000000000000000006044820152fd5b346101dc5761188436612260565b505050506020604051630a85bd0160e11b8152f35b6020806003193601126101dc5760043567ffffffffffffffff81116101dc576118c6903690600401612202565b6000805b82518210156119a1576118dd8284612a86565b5180600052600b8086526118fc600561042b6104266040600020612359565b81600052855261191a60ff60016040600020015460081c1615612b9e565b80600052600d85526001600160a01b03604060002054161561195d576119579161195191600052600c865260406000205490612afb565b91612a61565b906118ca565b6064856040519062461bcd60e51b82526004820152600a60248201527f4e6f74206c6973746564000000000000000000000000000000000000000000006044820152fd5b90503403611a9e5760005b81518110156104eb576119bf8183612a86565b519081600052600d918285526001600160a01b036040600020541692600c808752600080808060408120546119f588338c6126c8565b89828215611a95575bf115611a89576000838152600b88526040808220600101805461ff0019166101001790559188528181208190559187529081902080546001600160a01b031916905580516001600160a01b039094168452336020850152611a84937fdff62e8c5a691c893351d31dbf7662f327584f2bce63afb13783397bd23dd934918190810161049a565b6119ac565b6040513d6000823e3d90fd5b506108fc6119fe565b6064826040519062461bcd60e51b82526004820152601360248201527f496e636f72726563742045544820746f74616c000000000000000000000000006044820152fd5b346101dc5760403660031901126101dc57611afb6121d4565b602435906001600160a01b038080611b12856124a2565b16921691808314611c0c57803314908115611be7575b5015611b7d578260005260046020526040600020826001600160a01b0319825416179055611b55836124a2565b167f8c5be1e5ebec7d5bd14f71427d1e84f3dd0314c0f7b2291e5b200ac8c7c3b925600080a4005b608460405162461bcd60e51b815260206004820152603d60248201527f4552433732313a20617070726f76652063616c6c6572206973206e6f7420746f60448201527f6b656e206f776e6572206f7220617070726f76656420666f7220616c6c0000006064820152fd5b9050600052600560205260406000203360005260205260ff6040600020541684611b28565b608460405162461bcd60e51b815260206004820152602160248201527f4552433732313a20617070726f76616c20746f2063757272656e74206f776e6560448201527f72000000000000000000000000000000000000000000000000000000000000006064820152fd5b346101dc5760203660031901126101dc576020610c946004356124c4565b346101dc5760003660031901126101dc5760405160008054611cb58161231f565b80845290600190818116908115610b235750600114611cde5761089984610885818603826120f9565b600080805292507f290decd9548b62a8d60345a988386fc84ba6bc95484008f6362f93160ef3e5635b828410611d1f57505050810160200161088582610aba565b80546020858701810191909152909301928101611d07565b346101dc576020806003193601126101dc5760043590611d59611688836124a2565b81600052600b815260ff60016040600020015416611de457600b9082600052818152611da56001611d91836101b66040600020612359565b8101600a8152030190200154421115612b53565b82600052526001604060002001600160ff198254161790557f57bbca7d06236724b863845d5ac4a5b2431ab54922f89f8644ec9e837b7b5e04600080a2005b6064906040519062461bcd60e51b82526004820152601360248201527f5469636b657420616c72656164792075736564000000000000000000000000006044820152fd5b346101dc576020806003193601126101dc5760043567ffffffffffffffff81116101dc57611e5a90369060040161216e565b604051906001600160a01b036007825193858181860196611e7c81838a61218c565b8101600a8152030190200154163303611f6b5760405183818351611ea181838861218c565b8101600e81520301902054918215611f2757611ecb8460009260405180938192875192839161218c565b8101600e815203019020556000808080853382f115611a89577f0e3cb88532f06b70336e125fd6950a9f3608941ebc860801fc03a608c5629c4d91611f1b604051926040845260408401906121af565b938201528033930390a2005b6064846040519062461bcd60e51b82526004820152601460248201527f4e6f2066756e647320746f2077697468647261770000000000000000000000006044820152fd5b6064836040519062461bcd60e51b82526004820152600f60248201527f4e6f74206576656e74206f776e657200000000000000000000000000000000006044820152fd5b346101dc5760203660031901126101dc57600435600052600c6020526020604060002054604051908152f35b346101dc5760203660031901126101dc57600435907fffffffff0000000000000000000000000000000000000000000000000000000082168092036101dc57817f49064906000000000000000000000000000000000000000000000000000000006020931490811561204f575b5015158152f35b7f80ac58cd000000000000000000000000000000000000000000000000000000008114915081156120b3575b8115612089575b5083612048565b7f01ffc9a70000000000000000000000000000000000000000000000000000000091501483612082565b7f5b5e139f000000000000000000000000000000000000000000000000000000008114915061207b565b6020810190811067ffffffffffffffff82111761125057604052565b90601f8019910116810190811067ffffffffffffffff82111761125057604052565b67ffffffffffffffff811161125057601f01601f191660200190565b9291926121438261211b565b9161215160405193846120f9565b8294818452818301116101dc578281602093846000960137010152565b9080601f830112156101dc5781602061218993359101612137565b90565b60005b83811061219f5750506000910152565b818101518382015260200161218f565b906020916121c88151809281855285808601910161218c565b601f01601f1916010190565b600435906001600160a01b03821682036101dc57565b67ffffffffffffffff81116112505760051b60200190565b81601f820112156101dc57803591612219836121ea565b9261222760405194856120f9565b808452602092838086019260051b8201019283116101dc578301905b828210612251575050505090565b81358152908301908301612243565b9060806003198301126101dc576001600160a01b039160043583811681036101dc579260243590811681036101dc5791604435916064359067ffffffffffffffff82116101dc57806023830112156101dc5781602461218993600401359101612137565b60609060031901126101dc576001600160a01b039060043582811681036101dc579160243590811681036101dc579060443590565b602061231291816040519382858094519384920161218c565b8101600a81520301902090565b90600182811c9216801561234f575b602083101461233957565b634e487b7160e01b600052602260045260246000fd5b91607f169161232e565b906040519182600082549261236d8461231f565b9081845260019485811690816000146123dc5750600114612399575b5050612397925003836120f9565b565b9093915060005260209081600020936000915b8183106123c457505061239793508201013880612389565b855488840185015294850194879450918301916123ac565b91505061239794506020925060ff191682840152151560051b8201013880612389565b6001600160a01b0360075416330361241357565b606460405162461bcd60e51b815260206004820152602060248201527f4f776e61626c653a2063616c6c6572206973206e6f7420746865206f776e65726044820152fd5b1561245e57565b606460405162461bcd60e51b815260206004820152601860248201527f4552433732313a20696e76616c696420746f6b656e20494400000000000000006044820152fd5b60005260026020526001600160a01b0360406000205416612189811515612457565b6124ec6124e78260005260026020526001600160a01b0360406000205416151590565b612457565b60005260046020526001600160a01b036040600020541690565b1561250d57565b608460405162461bcd60e51b815260206004820152602d60248201527f4552433732313a2063616c6c6572206973206e6f7420746f6b656e206f776e6560448201527f72206f7220617070726f766564000000000000000000000000000000000000006064820152fd5b1561257e57565b60405162461bcd60e51b815260206004820152603260248201527f4552433732313a207472616e7366657220746f206e6f6e20455243373231526560448201527f63656976657220696d706c656d656e74657200000000000000000000000000006064820152608490fd5b906001600160a01b0380806125fd846124a2565b16931691838314938415612630575b50831561261a575b50505090565b612626919293506124c4565b1614388080612614565b909350600052600560205260406000208260005260205260ff60406000205416923861260c565b1561265e57565b608460405162461bcd60e51b815260206004820152602560248201527f4552433732313a207472616e736665722066726f6d20696e636f72726563742060448201527f6f776e65720000000000000000000000000000000000000000000000000000006064820152fd5b906126f0916126d6846124a2565b916001600160a01b03938493848094169485911614612657565b16918215612786578161270d91612706866124a2565b1614612657565b7fddf252ad1be2c89b69c2b068fc378daa952ba7f163c4a11628f55a4df523b3ef60008481526004602052604081206001600160a01b03199081815416905583825260036020526040822060001981540190558482526040822060018154019055858252600260205284604083209182541617905580a4565b608460405162461bcd60e51b8152602060048201526024808201527f4552433732313a207472616e7366657220746f20746865207a65726f2061646460448201527f72657373000000000000000000000000000000000000000000000000000000006064820152fd5b91929091803b1561298657612844936040519081630a85bd0160e11b9384825233600483015260009687602484015260448301526080606483015281876001600160a01b038260209b8c9760848301906121af565b0393165af184918161292a575b50612901575050503d6000146128f9573d61286b8161211b565b9061287960405192836120f9565b81528091833d92013e5b805191826128f65760405162461bcd60e51b815260206004820152603260248201527f4552433732313a207472616e7366657220746f206e6f6e20455243373231526560448201527f63656976657220696d706c656d656e74657200000000000000000000000000006064820152608490fd5b01fd5b506060612883565b7fffffffff00000000000000000000000000000000000000000000000000000000161492509050565b9091508581813d831161297f575b61294281836120f9565b8101031261297b57517fffffffff000000000000000000000000000000000000000000000000000000008116810361297b579038612851565b8480fd5b503d612938565b50915050600190565b92939190803b15612a0d576129e2946040518092630a85bd0160e11b948583523360048401526001600160a01b03809816602484015260448301526080606483015281806020998a9560848301906121af565b03916000988991165af184918161292a5750612901575050503d6000146128f9573d61286b8161211b565b5050915050600190565b612a3a6124e78260005260026020526001600160a01b0360406000205416151590565b6000526006602052612a4f6040600020612359565b6000604051612a5d816120dd565b5290565b6000198114612a705760010190565b634e487b7160e01b600052601160045260246000fd5b8051821015612a9a5760209160051b010190565b634e487b7160e01b600052603260045260246000fd5b15612ab757565b606460405162461bcd60e51b815260206004820152601c60248201527f4552433732313a20746f6b656e20616c7265616479206d696e746564000000006044820152fd5b91908201809211612a7057565b15612b0f57565b606460405162461bcd60e51b815260206004820152601060248201527f4e6f74207469636b6574206f776e6572000000000000000000000000000000006044820152fd5b15612b5a57565b606460405162461bcd60e51b815260206004820152601260248201527f5469636b657420686173206578706972656400000000000000000000000000006044820152fd5b15612ba557565b606460405162461bcd60e51b815260206004820152600e60248201527f416c7265616479207265736f6c640000000000000000000000000000000000006044820152fdfea26469706673582212207da3c4032b1771c68e672b15deb9e621f7b11b1dc141cf4212b0b47ae3a6477d64736f6c63430008140033",
  "linkReferences": {},
  "deployedLinkReferences": {}
}