{
  "contracts/OnTix.sol": {
    "OnTix": {
      "abi": [
        {
          "inputs": [],
          "stateMutability": "nonpayable",
          "type": "constructor"
        },
        {
          "anonymous": false,
          "inputs": [
            {
              "indexed": true,
              "internalType": "address",
              "name": "owner",
              "type": "address"
            },
            {
              "indexed": true,
              "internalType": "address",
              "name": "approved",
              "type": "address"
            },
            {
              "indexed": true,
              "internalType": "uint256",
              "name": "tokenId",
              "type": "uint256"
            }
          ],
          "name": "Approval",
          "type": "event"
        },
        {
          "anonymous": false,
          "inputs": [
            {
              "indexed": true,
              "internalType": "address",
              "name": "owner",
              "type": "address"
            },
            {
              "indexed": true,
              "internalType": "address",
              "name": "operator",
              "type": "address"
            },
            {
              "indexed": false,
              "internalType": "bool",
              "name": "approved",
              "type": "bool"
            }
          ],
          "name": "ApprovalForAll",
          "type": "event"
        },
        {
          "anonymous": false,
          "inputs": [
            {
              "indexed": false,
              "internalType": "uint256",
              "name": "_fromTokenId",
              "type": "uint256"
            },
            {
              "indexed": false,
              "internalType": "uint256",
              "name": "_toTokenId",
              "type": "uint256"
            }
          ],
          "name": "BatchMetadataUpdate",
          "type": "event"
        },
        {
          "anonymous": false,
          "inputs": [
            {
              "indexed": true,
              "internalType": "string",
              "name": "eventId",
              "type": "string"
            },
            {
              "indexed": true,
              "internalType": "address",
              "name": "creator",
              "type": "address"
            }
          ],
          "name": "EventCreated",
          "type": "event"
        },
        {
          "anonymous": false,
          "inputs": [
            {
              "indexed": true,
              "internalType": "string",
              "name": "eventId",
              "type": "string"
            },
            {
              "indexed": true,
              "internalType": "address",
              "name": "creator",
              "type": "address"
            },
            {
              "indexed": false,
              "internalType": "uint256",
              "name": "amount",
              "type": "uint256"
            }
          ],
          "name": "EventProceedsWithdrawn",
          "type": "event"
        },
        {
          "anonymous": false,
          "inputs": [
            {
              "indexed": false,
              "internalType": "uint256",
              "name": "_tokenId",
              "type": "uint256"
            }
          ],
          "name": "MetadataUpdate",
          "type": "event"
        },
        {
          "anonymous": false,
          "inputs": [
            {
              "indexed": true,
              "internalType": "address",
              "name": "previousOwner",
              "type": "address"
            },
            {
              "indexed": true,
              "internalType": "address",
              "name": "newOwner",
              "type": "address"
            }
          ],
          "name": "OwnershipTransferred",
          "type": "event"
        },
        {
          "anonymous": false,
          "inputs": [
            {
              "indexed": true,
              "internalType": "uint256",
              "name": "ticketId",
              "type": "uint256"
            },
            {
              "indexed": false,
              "internalType": "uint256",
              "name": "price",
              "type": "uint256"
            }
          ],
          "name": "TicketListedForResale",
          "type": "event"
        },
        {
          "anonymous": false,
          "inputs": [
            {
              "indexed": true,
              "internalType": "uint256",
              "name": "ticketId",
              "type": "uint256"
            },
            {
              "indexed": true,
              "internalType": "address",
              "name": "buyer",
              "type": "address"
            }
          ],
          "name": "TicketPurchased",
          "type": "event"
        },
        {
          "anonymous": false,
          "inputs": [
            {
              "indexed": true,
              "internalType": "uint256",
              "name": "ticketId",
              "type": "uint256"
            },
            {
              "indexed": false,
              "internalType": "address",
              "name": "from",
              "type": "address"
            },
            {
              "indexed": false,
              "internalType": "address",
              "name": "to",
              "type": "address"
            }
          ],
          "name": "TicketResold",
          "type": "event"
        },
        {
          "anonymous": false,
          "inputs": [
            {
              "indexed": true,
              "internalType": "uint256",
              "name": "ticketId",
              "type": "uint256"
            },
            {
              "indexed": false,
              "internalType": "address",
              "name": "from",
              "type": "address"
            },
            {
              "indexed": false,
              "internalType": "address",
              "name": "to",
              "type": "address"
            }
          ],
          "name": "TicketTransferred",
          "type": "event"
        },
        {
          "anonymous": false,
          "inputs": [
            {
              "indexed": true,
              "internalType": "uint256",
              "name": "ticketId",
              "type": "uint256"
            }
          ],
          "name": "TicketValidated",
          "type": "event"
        },
        {
          "anonymous": false,
          "inputs": [
            {
              "indexed": true,
              "internalType": "address",
              "name": "from",
              "type": "address"
            },
            {
              "indexed": true,
              "internalType": "address",
              "name": "to",
              "type": "address"
            },
            {
              "indexed": true,
              "internalType": "uint256",
              "name": "tokenId",
              "type": "uint256"
            }
          ],
          "name": "Transfer",
          "type": "event"
        },
        {
          "inputs": [
            {
              "internalType": "address",
              "name": "to",
              "type": "address"
            },
            {
              "internalType": "uint256",
              "name": "tokenId",
              "type": "uint256"
            }
          ],
          "name": "approve",
          "outputs": [],
          "stateMutability": "nonpayable",
          "type": "function"
        },
        {
          "inputs": [
            {
              "internalType": "address",
              "name": "owner",
              "type": "address"
            }
          ],
          "name": "balanceOf",
          "outputs": [
            {
              "internalType": "uint256",
              "name": "",
              "type": "uint256"
            }
          ],
          "stateMutability": "view",
          "type": "function"
        },
        {
          "inputs": [
            {
              "internalType": "uint256[]",
              "name": "ticketIds",
              "type": "uint256[]"
            }
          ],
          "name": "buyResaleTickets",
          "outputs": [],
          "stateMutability": "payable",
          "type": "function"
        },
        {
          "inputs": [
            {
              "internalType": "string",
              "name": "eventId",
              "type": "string"
            },
            {
              "internalType": "uint256",
              "name": "quantity",
              "type": "uint256"
            }
          ],
          "name": "buyTickets",
          "outputs": [],
          "stateMutability": "payable",
          "type": "function"
        },
        {
          "inputs": [
            {
              "internalType": "string",
              "name": "id",
              "type": "string"
            },
            {
              "internalType": "uint256",
              "name": "startTime",
              "type": "uint256"
            },
            {
              "internalType": "uint256",
              "name": "endTime",
              "type": "uint256"
            },
            {
              "internalType": "uint256",
              "name": "ticketPrice",
              "type": "uint256"
            },
            {
              "internalType": "uint256",
              "name": "maxTickets",
              "type": "uint256"
            },
            {
              "internalType": "uint256",
              "name": "resaleStart",
              "type": "uint256"
            },
            {
              "internalType": "uint256",
              "name": "resaleEnd",
              "type": "uint256"
            },
            {
              "internalType": "uint256",
              "name": "resalePriceCap",
              "type": "uint256"
            },
            {
              "internalType": "string[]",
              "name": "tokenURIs",
              "type": "string[]"
            }
          ],
          "name": "createEvent",
          "outputs": [],
          "stateMutability": "nonpayable",
          "type": "function"
        },
        {
          "inputs": [
            {
              "internalType": "string",
              "name": "",
              "type": "string"
            }
          ],
          "name": "eventProceeds",
          "outputs": [
            {
              "internalType": "uint256",
              "name": "",
              "type": "uint256"
            }
          ],
          "stateMutability": "view",
          "type": "function"
        },
        {
          "inputs": [
            {
              "internalType": "string",
              "name": "",
              "type": "string"
            }
          ],
          "name": "events",
          "outputs": [
            {
              "internalType": "uint256",
              "name": "startTime",
              "type": "uint256"
            },
            {
              "internalType": "uint256",
              "name": "endTime",
              "type": "uint256"
            },
            {
              "internalType": "uint256",
              "name": "ticketPrice",
              "type": "uint256"
            },
            {
              "internalType": "uint256",
              "name": "maxTickets",
              "type": "uint256"
            },
            {
              "internalType": "uint256",
              "name": "resaleStart",
              "type": "uint256"
            },
            {
              "internalType": "uint256",
              "name": "resaleEnd",
              "type": "uint256"
            },
            {
              "internalType": "uint256",
              "name": "resalePriceCap",
              "type": "uint256"
            },
            {
              "internalType": "address",
              "name": "creator",
              "type": "address"
            },
            {
              "internalType": "uint256",
              "name": "ticketsSold",
              "type": "uint256"
            }
          ],
          "stateMutability": "view",
          "type": "function"
        },
        {
          "inputs": [
            {
              "internalType": "uint256",
              "name": "tokenId",
              "type": "uint256"
            }
          ],
          "name": "getApproved",
          "outputs": [
            {
              "internalType": "address",
              "name": "",
              "type": "address"
            }
          ],
          "stateMutability": "view",
          "type": "function"
        },
        {
          "inputs": [
            {
              "internalType": "uint256",
              "name": "tokenId",
              "type": "uint256"
            }
          ],
          "name": "getTokenURI",
          "outputs": [
            {
              "internalType": "string",
              "name": "",
              "type": "string"
            }
          ],
          "stateMutability": "view",
          "type": "function"
        },
        {
          "inputs": [
            {
              "internalType": "address",
              "name": "owner",
              "type": "address"
            },
            {
              "internalType": "address",
              "name": "operator",
              "type": "address"
            }
          ],
          "name": "isApprovedForAll",
          "outputs": [
            {
              "internalType": "bool",
              "name": "",
              "type": "bool"
            }
          ],
          "stateMutability": "view",
          "type": "function"
        },
        {
          "inputs": [
            {
              "internalType": "uint256",
              "name": "ticketId",
              "type": "uint256"
            },
            {
              "internalType": "uint256",
              "name": "price",
              "type": "uint256"
            }
          ],
          "name": "listForResale",
          "outputs": [],
          "stateMutability": "nonpayable",
          "type": "function"
        },
        {
          "inputs": [],
          "name": "name",
          "outputs": [
            {
              "internalType": "string",
              "name": "",
              "type": "string"
            }
          ],
          "stateMutability": "view",
          "type": "function"
        },
        {
          "inputs": [],
          "name": "nextEventId",
          "outputs": [
            {
              "internalType": "uint256",
              "name": "",
              "type": "uint256"
            }
          ],
          "stateMutability": "view",
          "type": "function"
        },
        {
          "inputs": [],
          "name": "nextTicketId",
          "outputs": [
            {
              "internalType": "uint256",
              "name": "",
              "type": "uint256"
            }
          ],
          "stateMutability": "view",
          "type": "function"
        },
        {
          "inputs": [
            {
              "internalType": "address",
              "name": "",
              "type": "address"
            },
            {
              "internalType": "address",
              "name": "",
              "type": "address"
            },
            {
              "internalType": "uint256",
              "name": "",
              "type": "uint256"
            },
            {
              "internalType": "bytes",
              "name": "",
              "type": "bytes"
            }
          ],
          "name": "onERC721Received",
          "outputs": [
            {
              "internalType": "bytes4",
              "name": "",
              "type": "bytes4"
            }
          ],
          "stateMutability": "nonpayable",
          "type": "function"
        },
        {
          "inputs": [],
          "name": "owner",
          "outputs": [
            {
              "internalType": "address",
              "name": "",
              "type": "address"
            }
          ],
          "stateMutability": "view",
          "type": "function"
        },
        {
          "inputs": [
            {
              "internalType": "uint256",
              "name": "tokenId",
              "type": "uint256"
            }
          ],
          "name": "ownerOf",
          "outputs": [
            {
              "internalType": "address",
              "name": "",
              "type": "address"
            }
          ],
          "stateMutability": "view",
          "type": "function"
        },
        {
          "inputs": [],
          "name": "renounceOwnership",
          "outputs": [],
          "stateMutability": "nonpayable",
          "type": "function"
        },
        {
          "inputs": [
            {
              "internalType": "uint256",
              "name": "",
              "type": "uint256"
            }
          ],
          "name": "resalePrice",
          "outputs": [
            {
              "internalType": "uint256",
              "name": "",
              "type": "uint256"
            }
          ],
          "stateMutability": "view",
          "type": "function"
        },
        {
          "inputs": [
            {
              "internalType": "uint256",
              "name": "",
              "type": "uint256"
            }
          ],
          "name": "resaleSeller",
          "outputs": [
            {
              "internalType": "address",
              "name": "",
              "type": "address"
            }
          ],
          "stateMutability": "view",
          "type": "function"
        },
        {
          "inputs": [
            {
              "internalType": "address",
              "name": "from",
              "type": "address"
            },
            {
              "internalType": "address",
              "name": "to",
              "type": "address"
            },
            {
              "internalType": "uint256",
              "name": "tokenId",
              "type": "uint256"
            }
          ],
          "name": "safeTransferFrom",
          "outputs": [],
          "stateMutability": "nonpayable",
          "type": "function"
        },
        {
          "inputs": [
            {
              "internalType": "address",
              "name": "from",
              "type": "address"
            },
            {
              "internalType": "address",
              "name": "to",
              "type": "address"
            },
            {
              "internalType": "uint256",
              "name": "tokenId",
              "type": "uint256"
            },
            {
              "internalType": "bytes",
              "name": "data",
              "type": "bytes"
            }
          ],
          "name": "safeTransferFrom",
          "outputs": [],
          "stateMutability": "nonpayable",
          "type": "function"
        },
        {
          "inputs": [
            {
              "internalType": "address",
              "name": "operator",
              "type": "address"
            },
            {
              "internalType": "bool",
              "name": "approved",
              "type": "bool"
            }
          ],
          "name": "setApprovalForAll",
          "outputs": [],
          "stateMutability": "nonpayable",
          "type": "function"
        },
        {
          "inputs": [
            {
              "internalType": "bytes4",
              "name": "interfaceId",
              "type": "bytes4"
            }
          ],
          "name": "supportsInterface",
          "outputs": [
            {
              "internalType": "bool",
              "name": "",
              "type": "bool"
            }
          ],
          "stateMutability": "view",
          "type": "function"
        },
        {
          "inputs": [],
          "name": "symbol",
          "outputs": [
            {
              "internalType": "string",
              "name": "",
              "type": "string"
            }
          ],
          "stateMutability": "view",
          "type": "function"
        },
        {
          "inputs": [
            {
              "internalType": "uint256",
              "name": "",
              "type": "uint256"
            }
          ],
          "name": "ticketMetadata",
          "outputs": [
            {
              "internalType": "string",
              "name": "eventId",
              "type": "string"
            },
            {
              "internalType": "bool",
              "name": "isUsed",
              "type": "bool"
            },
            {
              "internalType": "bool",
              "name": "isResold",
              "type": "bool"
            }
          ],
          "stateMutability": "view",
          "type": "function"
        },
        {
          "inputs": [
            {
              "internalType": "uint256",
              "name": "tokenId",
              "type": "uint256"
            }
          ],
          "name": "tokenURI",
          "outputs": [
            {
              "internalType": "string",
              "name": "",
              "type": "string"
            }
          ],
          "stateMutability": "view",
          "type": "function"
        },
        {
          "inputs": [
            {
              "internalType": "address",
              "name": "from",
              "type": "address"
            },
            {
              "internalType": "address",
              "name": "to",
              "type": "address"
            },
            {
              "internalType": "uint256",
              "name": "tokenId",
              "type": "uint256"
            }
          ],
          "name": "transferFrom",
          "outputs": [],
          "stateMutability": "nonpayable",
          "type": "function"
        },
        {
          "inputs": [
            {
              "internalType": "address",
              "name": "newOwner",
              "type": "address"
            }
          ],
          "name": "transferOwnership",
          "outputs": [],
          "stateMutability": "nonpayable",
          "type": "function"
        },
        {
          "inputs": [
            {
              "internalType": "address",
              "name": "to",
              "type": "address"
            },
            {
              "internalType": "uint256[]",
              "name": "ticketIds",
              "type": "uint256[]"
            }
          ],
          "name": "transferTickets",
          "outputs": [],
          "stateMutability": "nonpayable",
          "type": "function"
        },
        {
          "inputs": [
            {
              "internalType": "uint256",
              "name": "ticketId",
              "type": "uint256"
            }
          ],
          "name": "validateTicket",
          "outputs": [],
          "stateMutability": "nonpayable",
          "type": "function"
        },
        {
          "inputs": [
            {
              "internalType": "string",
              "name": "eventId",
              "type": "string"
            }
          ],
          "name": "withdrawEventProceeds",
          "outputs": [],
          "stateMutability": "nonpayable",
          "type": "function"
        }
      ],
      "evm": {
        "bytecode": {
          "linkReferences": {},
          "object": "60803462000352576001600160401b03906040818101838111838210176200033c578152600582526020916409edca8d2f60db1b83820152815193828501858110828211176200033c578352600385526209ea8b60eb1b8486015281518181116200033c576000948554916001948584811c9416801562000331575b838510146200031d578190601f94858111620002ca575b508390858311600114620002665789926200025a575b5050600019600383901b1c191690851b1786555b8651928311620002465783548481811c911680156200023b575b828210146200022757828111620001df575b5080918311600114620001785750849582939495926200016c575b5050600019600383901b1c191690821b1790555b60078054336001600160a01b03198216811790925591519290916001600160a01b0316907f8be0079c531659141344cd1fd0a4f28419497f9722a3daafe3b4186f6b6457e09080a3612c279081620003588239f35b01519050388062000103565b90601f198316968487528287209287905b898210620001c7575050838596979810620001ad575b505050811b01905562000117565b015160001960f88460031b161c191690553880806200019f565b80878596829496860151815501950193019062000189565b8487528187208380860160051c8201928487106200021d575b0160051c019085905b82811062000211575050620000e8565b88815501859062000201565b92508192620001f8565b634e487b7160e01b87526022600452602487fd5b90607f1690620000d6565b634e487b7160e01b86526041600452602486fd5b015190503880620000a8565b898052848a208894509190601f1984168b5b87828210620002b3575050841162000299575b505050811b018655620000bc565b015160001960f88460031b161c191690553880806200028b565b8385015186558b9790950194938401930162000278565b9091508880528389208580850160051c82019286861062000313575b918991869594930160051c01915b8281106200030457505062000092565b8b8155859450899101620002f4565b92508192620002e6565b634e487b7160e01b88526022600452602488fd5b93607f16936200007b565b634e487b7160e01b600052604160045260246000fd5b600080fdfe608080604052600436101561001357600080fd5b60003560e01c90816301ffc9a714611fc3575080630384ca4914611f975780630415792e14611e1c578063054ae7df14611d2b57806306fdde0314611c88578063081812fc14611c6a578063095ea7b314611ad657806314d2c6d11461188d578063150b7a021461186a5780631f7d863c1461165957806323b872dd146116355780633bb3a24d146115ac57806342842e0e146115795780634540a39614610cf857806349f28eca14610cc35780636031a52f14610ca55780636352211e14610c7657806370a0823114610bcc578063715018a614610b715780638da5cb5b14610b4a57806395d89b4114610a7f5780639673d6a3146109d35780639f9d903a146109b5578063a22cb465146108db578063b88d4fde1461089d578063c87b56dd14610866578063cd11d3fe146104ed578063d579762214610375578063e985e9c51461031b578063ea05fc51146102b9578063f2fde38b146101e15763fb77ce941461017f57600080fd5b346101dc5760203660031901126101dc5760043567ffffffffffffffff81116101dc576101c960206101b681933690600401612156565b8160405193828580945193849201612174565b8101600e81520301902054604051908152f35b600080fd5b346101dc5760203660031901126101dc576101fa6121bc565b6102026123e7565b6001600160a01b0380911690811561024f57600754826001600160a01b0319821617600755167f8be0079c531659141344cd1fd0a4f28419497f9722a3daafe3b4186f6b6457e0600080a3005b608460405162461bcd60e51b815260206004820152602660248201527f4f776e61626c653a206e6577206f776e657220697320746865207a65726f206160448201527f64647265737300000000000000000000000000000000000000000000000000006064820152fd5b346101dc5760203660031901126101dc57600435600052600b602052610301604060002060016102e882612341565b91015460ff604051938493606085526060850190612197565b918181161515602085015260081c16151560408301520390f35b346101dc5760403660031901126101dc576103346121bc565b602435906001600160a01b03908183168093036101dc57166000526005602052604060002090600052602052602060ff604060002054166040519015158152f35b346101dc5760403660031901126101dc5761038e6121bc565b6024803567ffffffffffffffff81116101dc576103af9036906004016121ea565b9060005b82518110156104eb576103c68184612a6e565b51336001600160a01b036103d98361248a565b16036104a75790816104a292600052600b60209080825260019161040a60ff846040600020015460081c1615612ba6565b83600052818152610435600561042b6104266040600020612341565b6122e1565b0154421115612b5b565b610440848a336126b0565b600084815291905260409081902091909101805461ff00191661010017905580513381526001600160a01b03881660208201527fd15524263ae66f75c1e604c47db6085085110f23ef7322b355179ac5e3b0783a91819081015b0390a2612a49565b6103b3565b60648360096040519162461bcd60e51b8352602060048401528201527f4e6f74206f776e657200000000000000000000000000000000000000000000006044820152fd5b005b60403660031901126101dc5760043567ffffffffffffffff81116101dc57610519903690600401612156565b6024803590604051835190602090818181880194610538818388612174565b8101600a815203019020926005840154421161082357600884019361055e868654612b03565b6003820154106107e05760020154858102908082048714901517156107cb5734036107885760009360005b60095481108061077f575b156106f457306001600160a01b036105ab8361248a565b16148061060d575b6105c6575b6105c190612a49565b610589565b946106056105c1916105d98833306126b0565b33887f785f2865353ae960010300f584fc6c577b757a853af69a99c769df3c8232d3de600080a3612a49565b9590506105b8565b5080600052600b8452604060002060405185810191816000825461063081612307565b936001918b83821691826000146106d5575050600114610695575b5050610660925003601f1981018352826120e1565b5190208560405161068c87828d61067f83830196879251928391612174565b81010380845201826120e1565b519020146105b3565b8a925060005281600020906000915b8583106106bc57505050610660928201018d8061064b565b81939294508054838689010152019201899185936106a4565b925093505061066094915060ff19168652801515028201018d8061064b565b509094808793950361073c576107239550610710908254612b03565b9055604051938492839251928391612174565b8101600e815203019020610738348254612b03565b9055005b606485601c886040519262461bcd60e51b845260048401528201527f4e6f7420656e6f75676820756e636c61696d6564207469636b657473000000006044820152fd5b50868610610594565b9060146064926040519262461bcd60e51b845260048401528201527f496e636f72726563742045544820616d6f756e740000000000000000000000006044820152fd5b50634e487b7160e01b60005260116004526000fd5b6064836012846040519262461bcd60e51b845260048401528201527f4e6f7420656e6f756768207469636b65747300000000000000000000000000006044820152fd5b9060196064926040519262461bcd60e51b845260048401528201527f5469636b65742073616c657320706572696f6420656e646564000000000000006044820152fd5b346101dc5760203660031901126101dc576108996108856004356129ff565b604051918291602083526020830190612197565b0390f35b346101dc576104eb6108d66108b136612248565b926108c66108c1839493336125d1565b6124ee565b6108d18383836126b0565b612977565b61255f565b346101dc5760403660031901126101dc576108f46121bc565b60243590811515908183036101dc576001600160a01b031691823314610971576109439033600052600560205260406000208460005260205260406000209060ff801983541691151516179055565b6040519081527f17307eab39ab6107e8899845ad3d59bd9653f200f220920489ca2b5937696c3160203392a3005b606460405162461bcd60e51b815260206004820152601960248201527f4552433732313a20617070726f766520746f2063616c6c6572000000000000006044820152fd5b346101dc5760003660031901126101dc576020600854604051908152f35b346101dc5760203660031901126101dc5760043567ffffffffffffffff81116101dc57610a0c60206101b6610120933690600401612156565b8101600a81520301902080549060018101549060028101546003820154600483015460058401549160068501549360086001600160a01b0360078801541696015496604051988952602089015260408801526060870152608086015260a085015260c084015260e0830152610100820152f35b346101dc5760003660031901126101dc5760405160006001805490610aa382612307565b80855291818116908115610b235750600114610aca575b61089984610885818603826120e1565b600081815292507fb10e2d527612073b26eecdfd717e6a320cf44b4afac2b0732d9fcbe2b7fa0cf65b828410610b0b57505050810160200161088582610aba565b80546020858701810191909152909301928101610af3565b60ff191660208087019190915292151560051b850190920192506108859150839050610aba565b346101dc5760003660031901126101dc5760206001600160a01b0360075416604051908152f35b346101dc5760003660031901126101dc57610b8a6123e7565b60006001600160a01b036007546001600160a01b03198116600755167f8be0079c531659141344cd1fd0a4f28419497f9722a3daafe3b4186f6b6457e08280a3005b346101dc5760203660031901126101dc576001600160a01b03610bed6121bc565b168015610c0c5760005260036020526020604060002054604051908152f35b608460405162461bcd60e51b815260206004820152602960248201527f4552433732313a2061646472657373207a65726f206973206e6f74206120766160448201527f6c6964206f776e657200000000000000000000000000000000000000000000006064820152fd5b346101dc5760203660031901126101dc576020610c9460043561248a565b6001600160a01b0360405191168152f35b346101dc5760003660031901126101dc576020600954604051908152f35b346101dc5760203660031901126101dc57600435600052600d60205260206001600160a01b0360406000205416604051908152f35b346101dc576101203660031901126101dc5760043567ffffffffffffffff81116101dc57610d2a903690600401612156565b6101043567ffffffffffffffff81116101dc57366023820112156101dc578060040135610d56816121d2565b91610d6460405193846120e1565b8183526024602084019260051b820101903682116101dc5760248101925b82841061154957858560443560243510156115055760c43560a43510156114c15760643560e4351061147d576084358151036114395760243560c435116113cf576040518061012081011067ffffffffffffffff610120830111176112445780610120849201604052602435815260443560208201526064356040820152608435606082015260a435608082015260c43560a082015260e43560c08201523360e0820152600061010082015260086101006040516020818651610e488183858b01612174565b8101600a81520301902092805184556020810151600185015560408101516002850155606081015160038501556080810151600485015560a0810151600585015560c08101516006850155600784016001600160a01b0360e0830151166001600160a01b031982541617905501519101556000915b6084358310610f065750610ed13391612a98565b7f2b20c961d6d0daf3f50b080228f74d6eb895e4cd1b7eac76d725eb5c39253345600080a3610f01600854612a49565b600855005b60095492604051610f16816120c5565b60008152301561138b576108d6610fd591610f50610f4a8860005260026020526001600160a01b0360406000205416151590565b15612ab8565b610f73610f4a8860005260026020526001600160a01b0360406000205416151590565b3060005260036020526040600020600181540190558660005260026020526040600020306001600160a01b0319825416179055863060007fddf252ad1be2c89b69c2b068fc378daa952ba7f163c4a11628f55a4df523b3ef8180a486306127d7565b610fdf8183612a6e565b516110008560005260026020526001600160a01b0360406000205416151590565b156113215784600052600660205260406000209080519067ffffffffffffffff82116112445781906110328454612307565b601f81116112d1575b50602090601f83116001146112655760009261125a575b50508160011b916000199060031b1c19161790555b7ff8e1a15aba9398e019f0b49df1a4fde98ee17ae345cb5f6b5e2c27f5033e8ce76020604051868152a16040519384606081011067ffffffffffffffff60608701111761124457606085016040528385526000602086015260006040860152600052600b602052604060002093805194855167ffffffffffffffff8111611244576110f28254612307565b601f8111611200575b506020601f821160011461118d57918160019260409461117b98999a600092611182575b5050600019600383901b1c191690831b1781555b019161115160208201511515849060ff801983541691151516179055565b0151815461ff00191690151560081b61ff001617905560095461117390612a49565b600955612a49565b9190610ebd565b015190508a8061111f565b8260005260206000209760005b601f19841681106111e857508261117b97989960409593600195938694601f198116106111cf575b505050811b018155611133565b015160001960f88460031b161c191690558a80806111c2565b828201518a556001909901986020928301920161119a565b826000526020600020601f830160051c81016020841061123d575b601f830160051c820181106112315750506110fb565b6000815560010161121b565b508061121b565b634e487b7160e01b600052604160045260246000fd5b015190508780611052565b9250836000526020600020906000935b601f19841685106112b6576001945083601f1981161061129d575b505050811b019055611067565b015160001960f88460031b161c19169055878080611290565b81810151835560209485019460019093019290910190611275565b909150836000526020600020601f840160051c81016020851061131a575b90849392915b601f830160051c8201811061130b57505061103b565b600081558594506001016112f5565b50806112ef565b608460405162461bcd60e51b815260206004820152602e60248201527f45524337323155524953746f726167653a2055524920736574206f66206e6f6e60448201527f6578697374656e7420746f6b656e0000000000000000000000000000000000006064820152fd5b606460405162461bcd60e51b815260206004820152602060248201527f4552433732313a206d696e7420746f20746865207a65726f20616464726573736044820152fd5b608460405162461bcd60e51b815260206004820152602360248201527f526573616c65206d75737420656e64206265666f7265206576656e742073746160448201527f72747300000000000000000000000000000000000000000000000000000000006064820152fd5b606460405162461bcd60e51b815260206004820152601f60248201527f546f6b656e55524973206d757374206d61746368206d61785469636b657473006044820152fd5b606460405162461bcd60e51b815260206004820152601860248201527f436170206d757374203e3d207469636b657420707269636500000000000000006044820152fd5b606460405162461bcd60e51b815260206004820152601560248201527f496e76616c696420726573616c652077696e646f7700000000000000000000006044820152fd5b606460405162461bcd60e51b815260206004820152601260248201527f496e76616c6964206576656e742074696d6500000000000000000000000000006044820152fd5b833567ffffffffffffffff81116101dc5760209161156e839260243691870101612156565b815201930192610d82565b346101dc576104eb6108d661158d366122ac565b906040519261159b846120c5565b600084526108c66108c184336125d1565b346101dc5760203660031901126101dc576004356115e08160005260026020526001600160a01b0360406000205416151590565b156115f157610885610899916129ff565b606460405162461bcd60e51b815260206004820152601460248201527f546f6b656e20646f6573206e6f742065786973740000000000000000000000006044820152fd5b346101dc576104eb611646366122ac565b916116546108c184336125d1565b6126b0565b346101dc5760403660031901126101dc5760043560243561168c61167c8361248a565b6001600160a01b03163314612b10565b81600052602090600b825260ff60016040600020015460081c166118265782600052600b82526116bf6040600020612341565b6040518360048351928281818701956116d9818389612174565b8101600a815203019020015442101591826117f6575b50509050156117b25782600052600b825260066117126104266040600020612341565b0154811161176e57907f2d8cbebfd87cb19b7bed949f9c8d5a80d939133966ef331ac575d69160ea04659183600052600c825280604060002055600d82526040600020336001600160a01b0319825416179055604051908152a2005b6064826040519062461bcd60e51b82526004820152601160248201527f45786365656473207072696365206361700000000000000000000000000000006044820152fd5b6064826040519062461bcd60e51b82526004820152601660248201527f526573616c65206e6f7420616c6c6f776564206e6f77000000000000000000006044820152fd5b61180f9250600593604051938492839251928391612174565b8101600a81520301902001544211158083866116ef565b6064826040519062461bcd60e51b82526004820152601360248201527f416c7265616479207265736f6c64206f6e6365000000000000000000000000006044820152fd5b346101dc5761187836612248565b505050506020604051630a85bd0160e11b8152f35b6020806003193601126101dc5760043567ffffffffffffffff81116101dc576118ba9036906004016121ea565b6000805b8251821015611995576118d18284612a6e565b5180600052600b8086526118f0600561042b6104266040600020612341565b81600052855261190e60ff60016040600020015460081c1615612ba6565b80600052600d85526001600160a01b0360406000205416156119515761194b9161194591600052600c865260406000205490612b03565b91612a49565b906118be565b6064856040519062461bcd60e51b82526004820152600a60248201527f4e6f74206c6973746564000000000000000000000000000000000000000000006044820152fd5b90503403611a925760005b81518110156104eb576119b38183612a6e565b519081600052600d918285526001600160a01b036040600020541692600c808752600080808060408120546119e988338c6126b0565b89828215611a89575bf115611a7d576000838152600b88526040808220600101805461ff0019166101001790559188528181208190559187529081902080546001600160a01b031916905580516001600160a01b039094168452336020850152611a78937fdff62e8c5a691c893351d31dbf7662f327584f2bce63afb13783397bd23dd934918190810161049a565b6119a0565b6040513d6000823e3d90fd5b506108fc6119f2565b6064826040519062461bcd60e51b82526004820152601360248201527f496e636f72726563742045544820746f74616c000000000000000000000000006044820152fd5b346101dc5760403660031901126101dc57611aef6121bc565b602435906001600160a01b038080611b068561248a565b16921691808314611c0057803314908115611bdb575b5015611b71578260005260046020526040600020826001600160a01b0319825416179055611b498361248a565b167f8c5be1e5ebec7d5bd14f71427d1e84f3dd0314c0f7b2291e5b200ac8c7c3b925600080a4005b608460405162461bcd60e51b815260206004820152603d60248201527f4552433732313a20617070726f76652063616c6c6572206973206e6f7420746f60448201527f6b656e206f776e6572206f7220617070726f76656420666f7220616c6c0000006064820152fd5b9050600052600560205260406000203360005260205260ff6040600020541684611b1c565b608460405162461bcd60e51b815260206004820152602160248201527f4552433732313a20617070726f76616c20746f2063757272656e74206f776e6560448201527f72000000000000000000000000000000000000000000000000000000000000006064820152fd5b346101dc5760203660031901126101dc576020610c946004356124ac565b346101dc5760003660031901126101dc5760405160008054611ca981612307565b80845290600190818116908115610b235750600114611cd25761089984610885818603826120e1565b600080805292507f290decd9548b62a8d60345a988386fc84ba6bc95484008f6362f93160ef3e5635b828410611d1357505050810160200161088582610aba565b80546020858701810191909152909301928101611cfb565b346101dc576020806003193601126101dc5760043590611d4d61167c8361248a565b81600052600b815260ff60016040600020015416611dd857600b9082600052818152611d996001611d85836101b66040600020612341565b8101600a8152030190200154421115612b5b565b82600052526001604060002001600160ff198254161790557f57bbca7d06236724b863845d5ac4a5b2431ab54922f89f8644ec9e837b7b5e04600080a2005b6064906040519062461bcd60e51b82526004820152601360248201527f5469636b657420616c72656164792075736564000000000000000000000000006044820152fd5b346101dc576020806003193601126101dc5760043567ffffffffffffffff81116101dc57611e4e903690600401612156565b90604051916001600160a01b036007825194848181860197611e7181838b612174565b8101600a8152030190200154163303611f535760405182818351611e96818389612174565b8101600e81520301902054928315611f0f57611ec083600092604051809381928751928391612174565b8101600e815203019020556000808080863382f115611a7d57611f037f0e3cb88532f06b70336e125fd6950a9f3608941ebc860801fc03a608c5629c4d91612a98565b916040519384523393a3005b6064836040519062461bcd60e51b82526004820152601460248201527f4e6f2066756e647320746f2077697468647261770000000000000000000000006044820152fd5b6064826040519062461bcd60e51b82526004820152600f60248201527f4e6f74206576656e74206f776e657200000000000000000000000000000000006044820152fd5b346101dc5760203660031901126101dc57600435600052600c6020526020604060002054604051908152f35b346101dc5760203660031901126101dc57600435907fffffffff0000000000000000000000000000000000000000000000000000000082168092036101dc57817f490649060000000000000000000000000000000000000000000000000000000060209314908115612037575b5015158152f35b7f80ac58cd0000000000000000000000000000000000000000000000000000000081149150811561209b575b8115612071575b5083612030565b7f01ffc9a7000000000000000000000000000000000000000000000000000000009150148361206a565b7f5b5e139f0000000000000000000000000000000000000000000000000000000081149150612063565b6020810190811067ffffffffffffffff82111761124457604052565b90601f8019910116810190811067ffffffffffffffff82111761124457604052565b67ffffffffffffffff811161124457601f01601f191660200190565b92919261212b82612103565b9161213960405193846120e1565b8294818452818301116101dc578281602093846000960137010152565b9080601f830112156101dc578160206121719335910161211f565b90565b60005b8381106121875750506000910152565b8181015183820152602001612177565b906020916121b081518092818552858086019101612174565b601f01601f1916010190565b600435906001600160a01b03821682036101dc57565b67ffffffffffffffff81116112445760051b60200190565b81601f820112156101dc57803591612201836121d2565b9261220f60405194856120e1565b808452602092838086019260051b8201019283116101dc578301905b828210612239575050505090565b8135815290830190830161222b565b9060806003198301126101dc576001600160a01b039160043583811681036101dc579260243590811681036101dc5791604435916064359067ffffffffffffffff82116101dc57806023830112156101dc578160246121719360040135910161211f565b60609060031901126101dc576001600160a01b039060043582811681036101dc579160243590811681036101dc579060443590565b60206122fa918160405193828580945193849201612174565b8101600a81520301902090565b90600182811c92168015612337575b602083101461232157565b634e487b7160e01b600052602260045260246000fd5b91607f1691612316565b906040519182600082549261235584612307565b9081845260019485811690816000146123c45750600114612381575b505061237f925003836120e1565b565b9093915060005260209081600020936000915b8183106123ac57505061237f93508201013880612371565b85548884018501529485019487945091830191612394565b91505061237f94506020925060ff191682840152151560051b8201013880612371565b6001600160a01b036007541633036123fb57565b606460405162461bcd60e51b815260206004820152602060248201527f4f776e61626c653a2063616c6c6572206973206e6f7420746865206f776e65726044820152fd5b1561244657565b606460405162461bcd60e51b815260206004820152601860248201527f4552433732313a20696e76616c696420746f6b656e20494400000000000000006044820152fd5b60005260026020526001600160a01b036040600020541661217181151561243f565b6124d46124cf8260005260026020526001600160a01b0360406000205416151590565b61243f565b60005260046020526001600160a01b036040600020541690565b156124f557565b608460405162461bcd60e51b815260206004820152602d60248201527f4552433732313a2063616c6c6572206973206e6f7420746f6b656e206f776e6560448201527f72206f7220617070726f766564000000000000000000000000000000000000006064820152fd5b1561256657565b60405162461bcd60e51b815260206004820152603260248201527f4552433732313a207472616e7366657220746f206e6f6e20455243373231526560448201527f63656976657220696d706c656d656e74657200000000000000000000000000006064820152608490fd5b906001600160a01b0380806125e58461248a565b16931691838314938415612618575b508315612602575b50505090565b61260e919293506124ac565b16143880806125fc565b909350600052600560205260406000208260005260205260ff6040600020541692386125f4565b1561264657565b608460405162461bcd60e51b815260206004820152602560248201527f4552433732313a207472616e736665722066726f6d20696e636f72726563742060448201527f6f776e65720000000000000000000000000000000000000000000000000000006064820152fd5b906126d8916126be8461248a565b916001600160a01b0393849384809416948591161461263f565b1691821561276e57816126f5916126ee8661248a565b161461263f565b7fddf252ad1be2c89b69c2b068fc378daa952ba7f163c4a11628f55a4df523b3ef60008481526004602052604081206001600160a01b03199081815416905583825260036020526040822060001981540190558482526040822060018154019055858252600260205284604083209182541617905580a4565b608460405162461bcd60e51b8152602060048201526024808201527f4552433732313a207472616e7366657220746f20746865207a65726f2061646460448201527f72657373000000000000000000000000000000000000000000000000000000006064820152fd5b91929091803b1561296e5761282c936040519081630a85bd0160e11b9384825233600483015260009687602484015260448301526080606483015281876001600160a01b038260209b8c976084830190612197565b0393165af1849181612912575b506128e9575050503d6000146128e1573d61285381612103565b9061286160405192836120e1565b81528091833d92013e5b805191826128de5760405162461bcd60e51b815260206004820152603260248201527f4552433732313a207472616e7366657220746f206e6f6e20455243373231526560448201527f63656976657220696d706c656d656e74657200000000000000000000000000006064820152608490fd5b01fd5b50606061286b565b7fffffffff00000000000000000000000000000000000000000000000000000000161492509050565b9091508581813d8311612967575b61292a81836120e1565b8101031261296357517fffffffff0000000000000000000000000000000000000000000000000000000081168103612963579038612839565b8480fd5b503d612920565b50915050600190565b92939190803b156129f5576129ca946040518092630a85bd0160e11b948583523360048401526001600160a01b03809816602484015260448301526080606483015281806020998a956084830190612197565b03916000988991165af184918161291257506128e9575050503d6000146128e1573d61285381612103565b5050915050600190565b612a226124cf8260005260026020526001600160a01b0360406000205416151590565b6000526006602052612a376040600020612341565b6000604051612a45816120c5565b5290565b6000198114612a585760010190565b634e487b7160e01b600052601160045260246000fd5b8051821015612a825760209160051b010190565b634e487b7160e01b600052603260045260246000fd5b612ab090602060405192828480945193849201612174565b810103902090565b15612abf57565b606460405162461bcd60e51b815260206004820152601c60248201527f4552433732313a20746f6b656e20616c7265616479206d696e746564000000006044820152fd5b91908201809211612a5857565b15612b1757565b606460405162461bcd60e51b815260206004820152601060248201527f4e6f74207469636b6574206f776e6572000000000000000000000000000000006044820152fd5b15612b6257565b606460405162461bcd60e51b815260206004820152601260248201527f5469636b657420686173206578706972656400000000000000000000000000006044820152fd5b15612bad57565b606460405162461bcd60e51b815260206004820152600e60248201527f416c7265616479207265736f6c640000000000000000000000000000000000006044820152fdfea26469706673582212204d966053015bf3fcb66970abb2614fa4c8b002e0ec1fe6639cb21e2d83afc20164736f6c63430008140033",
          "opcodes": "PUSH1 0x80 CALLVALUE PUSH3 0x352 JUMPI PUSH1 0x1 PUSH1 0x1 PUSH1 0x40 SHL SUB SWAP1 PUSH1 0x40 DUP2 DUP2 ADD DUP4 DUP2 GT DUP4 DUP3 LT OR PUSH3 0x33C JUMPI DUP2 MSTORE PUSH1 0x5 DUP3 MSTORE PUSH1 0x20 SWAP2 PUSH5 0x9EDCA8D2F PUSH1 0xDB SHL DUP4 DUP3 ADD MSTORE DUP2 MLOAD SWAP4 DUP3 DUP6 ADD DUP6 DUP2 LT DUP3 DUP3 GT OR PUSH3 0x33C JUMPI DUP4 MSTORE PUSH1 0x3 DUP6 MSTORE PUSH3 0x9EA8B PUSH1 0xEB SHL DUP5 DUP7 ADD MSTORE DUP2 MLOAD DUP2 DUP2 GT PUSH3 0x33C JUMPI PUSH1 0x0 SWAP5 DUP6 SLOAD SWAP2 PUSH1 0x1 SWAP5 DUP6 DUP5 DUP2 SHR SWAP5 AND DUP1 ISZERO PUSH3 0x331 JUMPI JUMPDEST DUP4 DUP6 LT EQ PUSH3 0x31D JUMPI DUP2 SWAP1 PUSH1 0x1F SWAP5 DUP6 DUP2 GT PUSH3 0x2CA JUMPI JUMPDEST POP DUP4 SWAP1 DUP6 DUP4 GT PUSH1 0x1 EQ PUSH3 0x266 JUMPI DUP10 SWAP3 PUSH3 0x25A JUMPI JUMPDEST POP POP PUSH1 0x0 NOT PUSH1 0x3 DUP4 SWAP1 SHL SHR NOT AND SWAP1 DUP6 SHL OR DUP7 SSTORE JUMPDEST DUP7 MLOAD SWAP3 DUP4 GT PUSH3 0x246 JUMPI DUP4 SLOAD DUP5 DUP2 DUP2 SHR SWAP2 AND DUP1 ISZERO PUSH3 0x23B JUMPI JUMPDEST DUP3 DUP3 LT EQ PUSH3 0x227 JUMPI DUP3 DUP2 GT PUSH3 0x1DF JUMPI JUMPDEST POP DUP1 SWAP2 DUP4 GT PUSH1 0x1 EQ PUSH3 0x178 JUMPI POP DUP5 SWAP6 DUP3 SWAP4 SWAP5 SWAP6 SWAP3 PUSH3 0x16C JUMPI JUMPDEST POP POP PUSH1 0x0 NOT PUSH1 0x3 DUP4 SWAP1 SHL SHR NOT AND SWAP1 DUP3 SHL OR SWAP1 SSTORE JUMPDEST PUSH1 0x7 DUP1 SLOAD CALLER PUSH1 0x1 PUSH1 0x1 PUSH1 0xA0 SHL SUB NOT DUP3 AND DUP2 OR SWAP1 SWAP3 SSTORE SWAP2 MLOAD SWAP3 SWAP1 SWAP2 PUSH1 0x1 PUSH1 0x1 PUSH1 0xA0 SHL SUB AND SWAP1 PUSH32 0x8BE0079C531659141344CD1FD0A4F28419497F9722A3DAAFE3B4186F6B6457E0 SWAP1 DUP1 LOG3 PUSH2 0x2C27 SWAP1 DUP2 PUSH3 0x358 DUP3 CODECOPY RETURN JUMPDEST ADD MLOAD SWAP1 POP CODESIZE DUP1 PUSH3 0x103 JUMP JUMPDEST SWAP1 PUSH1 0x1F NOT DUP4 AND SWAP7 DUP5 DUP8 MSTORE DUP3 DUP8 KECCAK256 SWAP3 DUP8 SWAP1 JUMPDEST DUP10 DUP3 LT PUSH3 0x1C7 JUMPI POP POP DUP4 DUP6 SWAP7 SWAP8 SWAP9 LT PUSH3 0x1AD JUMPI JUMPDEST POP POP POP DUP2 SHL ADD SWAP1 SSTORE PUSH3 0x117 JUMP JUMPDEST ADD MLOAD PUSH1 0x0 NOT PUSH1 0xF8 DUP5 PUSH1 0x3 SHL AND SHR NOT AND SWAP1 SSTORE CODESIZE DUP1 DUP1 PUSH3 0x19F JUMP JUMPDEST DUP1 DUP8 DUP6 SWAP7 DUP3 SWAP5 SWAP7 DUP7 ADD MLOAD DUP2 SSTORE ADD SWAP6 ADD SWAP4 ADD SWAP1 PUSH3 0x189 JUMP JUMPDEST DUP5 DUP8 MSTORE DUP2 DUP8 KECCAK256 DUP4 DUP1 DUP7 ADD PUSH1 0x5 SHR DUP3 ADD SWAP3 DUP5 DUP8 LT PUSH3 0x21D JUMPI JUMPDEST ADD PUSH1 0x5 SHR ADD SWAP1 DUP6 SWAP1 JUMPDEST DUP3 DUP2 LT PUSH3 0x211 JUMPI POP POP PUSH3 0xE8 JUMP JUMPDEST DUP9 DUP2 SSTORE ADD DUP6 SWAP1 PUSH3 0x201 JUMP JUMPDEST SWAP3 POP DUP2 SWAP3 PUSH3 0x1F8 JUMP JUMPDEST PUSH4 0x4E487B71 PUSH1 0xE0 SHL DUP8 MSTORE PUSH1 0x22 PUSH1 0x4 MSTORE PUSH1 0x24 DUP8 REVERT JUMPDEST SWAP1 PUSH1 0x7F AND SWAP1 PUSH3 0xD6 JUMP JUMPDEST PUSH4 0x4E487B71 PUSH1 0xE0 SHL DUP7 MSTORE PUSH1 0x41 PUSH1 0x4 MSTORE PUSH1 0x24 DUP7 REVERT JUMPDEST ADD MLOAD SWAP1 POP CODESIZE DUP1 PUSH3 0xA8 JUMP JUMPDEST DUP10 DUP1 MSTORE DUP5 DUP11 KECCAK256 DUP9 SWAP5 POP SWAP2 SWAP1 PUSH1 0x1F NOT DUP5 AND DUP12 JUMPDEST DUP8 DUP3 DUP3 LT PUSH3 0x2B3 JUMPI POP POP DUP5 GT PUSH3 0x299 JUMPI JUMPDEST POP POP POP DUP2 SHL ADD DUP7 SSTORE PUSH3 0xBC JUMP JUMPDEST ADD MLOAD PUSH1 0x0 NOT PUSH1 0xF8 DUP5 PUSH1 0x3 SHL AND SHR NOT AND SWAP1 SSTORE CODESIZE DUP1 DUP1 PUSH3 0x28B JUMP JUMPDEST DUP4 DUP6 ADD MLOAD DUP7 SSTORE DUP12 SWAP8 SWAP1 SWAP6 ADD SWAP5 SWAP4 DUP5 ADD SWAP4 ADD PUSH3 0x278 JUMP JUMPDEST SWAP1 SWAP2 POP DUP9 DUP1 MSTORE DUP4 DUP10 KECCAK256 DUP6 DUP1 DUP6 ADD PUSH1 0x5 SHR DUP3 ADD SWAP3 DUP7 DUP7 LT PUSH3 0x313 JUMPI JUMPDEST SWAP2 DUP10 SWAP2 DUP7 SWAP6 SWAP5 SWAP4 ADD PUSH1 0x5 SHR ADD SWAP2 JUMPDEST DUP3 DUP2 LT PUSH3 0x304 JUMPI POP POP PUSH3 0x92 JUMP JUMPDEST DUP12 DUP2 SSTORE DUP6 SWAP5 POP DUP10 SWAP2 ADD PUSH3 0x2F4 JUMP JUMPDEST SWAP3 POP DUP2 SWAP3 PUSH3 0x2E6 JUMP JUMPDEST PUSH4 0x4E487B71 PUSH1 0xE0 SHL DUP9 MSTORE PUSH1 0x22 PUSH1 0x4 MSTORE PUSH1 0x24 DUP9 REVERT JUMPDEST SWAP4 PUSH1 0x7F AND SWAP4 PUSH3 0x7B JUMP JUMPDEST PUSH4 0x4E487B71 PUSH1 0xE0 SHL PUSH1 0x0 MSTORE PUSH1 0x41 PUSH1 0x4 MSTORE PUSH1 0x24 PUSH1 0x0 REVERT JUMPDEST PUSH1 0x0 DUP1 REVERT INVALID PUSH1 0x80 DUP1 PUSH1 0x40 MSTORE PUSH1 0x4 CALLDATASIZE LT ISZERO PUSH2 0x13 JUMPI PUSH1 0x0 DUP1 REVERT JUMPDEST PUSH1 0x0 CALLDATALOAD PUSH1 0xE0 SHR SWAP1 DUP2 PUSH4 0x1FFC9A7 EQ PUSH2 0x1FC3 JUMPI POP DUP1 PUSH4 0x384CA49 EQ PUSH2 0x1F97 JUMPI DUP1 PUSH4 0x415792E EQ PUSH2 0x1E1C JUMPI DUP1 PUSH4 0x54AE7DF EQ PUSH2 0x1D2B JUMPI DUP1 PUSH4 0x6FDDE03 EQ PUSH2 0x1C88 JUMPI DUP1 PUSH4 0x81812FC EQ PUSH2 0x1C6A JUMPI DUP1 PUSH4 0x95EA7B3 EQ PUSH2 0x1AD6 JUMPI DUP1 PUSH4 0x14D2C6D1 EQ PUSH2 0x188D JUMPI DUP1 PUSH4 0x150B7A02 EQ PUSH2 0x186A JUMPI DUP1 PUSH4 0x1F7D863C EQ PUSH2 0x1659 JUMPI DUP1 PUSH4 0x23B872DD EQ PUSH2 0x1635 JUMPI DUP1 PUSH4 0x3BB3A24D EQ PUSH2 0x15AC JUMPI DUP1 PUSH4 0x42842E0E EQ PUSH2 0x1579 JUMPI DUP1 PUSH4 0x4540A396 EQ PUSH2 0xCF8 JUMPI DUP1 PUSH4 0x49F28ECA EQ PUSH2 0xCC3 JUMPI DUP1 PUSH4 0x6031A52F EQ PUSH2 0xCA5 JUMPI DUP1 PUSH4 0x6352211E EQ PUSH2 0xC76 JUMPI DUP1 PUSH4 0x70A08231 EQ PUSH2 0xBCC JUMPI DUP1 PUSH4 0x715018A6 EQ PUSH2 0xB71 JUMPI DUP1 PUSH4 0x8DA5CB5B EQ PUSH2 0xB4A JUMPI DUP1 PUSH4 0x95D89B41 EQ PUSH2 0xA7F JUMPI DUP1 PUSH4 0x9673D6A3 EQ PUSH2 0x9D3 JUMPI DUP1 PUSH4 0x9F9D903A EQ PUSH2 0x9B5 JUMPI DUP1 PUSH4 0xA22CB465 EQ PUSH2 0x8DB JUMPI DUP1 PUSH4 0xB88D4FDE EQ PUSH2 0x89D JUMPI DUP1 PUSH4 0xC87B56DD EQ PUSH2 0x866 JUMPI DUP1 PUSH4 0xCD11D3FE EQ PUSH2 0x4ED JUMPI DUP1 PUSH4 0xD5797622 EQ PUSH2 0x375 JUMPI DUP1 PUSH4 0xE985E9C5 EQ PUSH2 0x31B JUMPI DUP1 PUSH4 0xEA05FC51 EQ PUSH2 0x2B9 JUMPI DUP1 PUSH4 0xF2FDE38B EQ PUSH2 0x1E1 JUMPI PUSH4 0xFB77CE94 EQ PUSH2 0x17F JUMPI PUSH1 0x0 DUP1 REVERT JUMPDEST CALLVALUE PUSH2 0x1DC JUMPI PUSH1 0x20 CALLDATASIZE PUSH1 0x3 NOT ADD SLT PUSH2 0x1DC JUMPI PUSH1 0x4 CALLDATALOAD PUSH8 0xFFFFFFFFFFFFFFFF DUP2 GT PUSH2 0x1DC JUMPI PUSH2 0x1C9 PUSH1 0x20 PUSH2 0x1B6 DUP2 SWAP4 CALLDATASIZE SWAP1 PUSH1 0x4 ADD PUSH2 0x2156 JUMP JUMPDEST DUP2 PUSH1 0x40 MLOAD SWAP4 DUP3 DUP6 DUP1 SWAP5 MLOAD SWAP4 DUP5 SWAP3 ADD PUSH2 0x2174 JUMP JUMPDEST DUP2 ADD PUSH1 0xE DUP2 MSTORE SUB ADD SWAP1 KECCAK256 SLOAD PUSH1 0x40 MLOAD SWAP1 DUP2 MSTORE RETURN JUMPDEST PUSH1 0x0 DUP1 REVERT JUMPDEST CALLVALUE PUSH2 0x1DC JUMPI PUSH1 0x20 CALLDATASIZE PUSH1 0x3 NOT ADD SLT PUSH2 0x1DC JUMPI PUSH2 0x1FA PUSH2 0x21BC JUMP JUMPDEST PUSH2 0x202 PUSH2 0x23E7 JUMP JUMPDEST PUSH1 0x1 PUSH1 0x1 PUSH1 0xA0 SHL SUB DUP1 SWAP2 AND SWAP1 DUP2 ISZERO PUSH2 0x24F JUMPI PUSH1 0x7 SLOAD DUP3 PUSH1 0x1 PUSH1 0x1 PUSH1 0xA0 SHL SUB NOT DUP3 AND OR PUSH1 0x7 SSTORE AND PUSH32 0x8BE0079C531659141344CD1FD0A4F28419497F9722A3DAAFE3B4186F6B6457E0 PUSH1 0x0 DUP1 LOG3 STOP JUMPDEST PUSH1 0x84 PUSH1 0x40 MLOAD PUSH3 0x461BCD PUSH1 0xE5 SHL DUP2 MSTORE PUSH1 0x20 PUSH1 0x4 DUP3 ADD MSTORE PUSH1 0x26 PUSH1 0x24 DUP3 ADD MSTORE PUSH32 0x4F776E61626C653A206E6577206F776E657220697320746865207A65726F2061 PUSH1 0x44 DUP3 ADD MSTORE PUSH32 0x6464726573730000000000000000000000000000000000000000000000000000 PUSH1 0x64 DUP3 ADD MSTORE REVERT JUMPDEST CALLVALUE PUSH2 0x1DC JUMPI PUSH1 0x20 CALLDATASIZE PUSH1 0x3 NOT ADD SLT PUSH2 0x1DC JUMPI PUSH1 0x4 CALLDATALOAD PUSH1 0x0 MSTORE PUSH1 0xB PUSH1 0x20 MSTORE PUSH2 0x301 PUSH1 0x40 PUSH1 0x0 KECCAK256 PUSH1 0x1 PUSH2 0x2E8 DUP3 PUSH2 0x2341 JUMP JUMPDEST SWAP2 ADD SLOAD PUSH1 0xFF PUSH1 0x40 MLOAD SWAP4 DUP5 SWAP4 PUSH1 0x60 DUP6 MSTORE PUSH1 0x60 DUP6 ADD SWAP1 PUSH2 0x2197 JUMP JUMPDEST SWAP2 DUP2 DUP2 AND ISZERO ISZERO PUSH1 0x20 DUP6 ADD MSTORE PUSH1 0x8 SHR AND ISZERO ISZERO PUSH1 0x40 DUP4 ADD MSTORE SUB SWAP1 RETURN JUMPDEST CALLVALUE PUSH2 0x1DC JUMPI PUSH1 0x40 CALLDATASIZE PUSH1 0x3 NOT ADD SLT PUSH2 0x1DC JUMPI PUSH2 0x334 PUSH2 0x21BC JUMP JUMPDEST PUSH1 0x24 CALLDATALOAD SWAP1 PUSH1 0x1 PUSH1 0x1 PUSH1 0xA0 SHL SUB SWAP1 DUP2 DUP4 AND DUP1 SWAP4 SUB PUSH2 0x1DC JUMPI AND PUSH1 0x0 MSTORE PUSH1 0x5 PUSH1 0x20 MSTORE PUSH1 0x40 PUSH1 0x0 KECCAK256 SWAP1 PUSH1 0x0 MSTORE PUSH1 0x20 MSTORE PUSH1 0x20 PUSH1 0xFF PUSH1 0x40 PUSH1 0x0 KECCAK256 SLOAD AND PUSH1 0x40 MLOAD SWAP1 ISZERO ISZERO DUP2 MSTORE RETURN JUMPDEST CALLVALUE PUSH2 0x1DC JUMPI PUSH1 0x40 CALLDATASIZE PUSH1 0x3 NOT ADD SLT PUSH2 0x1DC JUMPI PUSH2 0x38E PUSH2 0x21BC JUMP JUMPDEST PUSH1 0x24 DUP1 CALLDATALOAD PUSH8 0xFFFFFFFFFFFFFFFF DUP2 GT PUSH2 0x1DC JUMPI PUSH2 0x3AF SWAP1 CALLDATASIZE SWAP1 PUSH1 0x4 ADD PUSH2 0x21EA JUMP JUMPDEST SWAP1 PUSH1 0x0 JUMPDEST DUP3 MLOAD DUP2 LT ISZERO PUSH2 0x4EB JUMPI PUSH2 0x3C6 DUP2 DUP5 PUSH2 0x2A6E JUMP JUMPDEST MLOAD CALLER PUSH1 0x1 PUSH1 0x1 PUSH1 0xA0 SHL SUB PUSH2 0x3D9 DUP4 PUSH2 0x248A JUMP JUMPDEST AND SUB PUSH2 0x4A7 JUMPI SWAP1 DUP2 PUSH2 0x4A2 SWAP3 PUSH1 0x0 MSTORE PUSH1 0xB PUSH1 0x20 SWAP1 DUP1 DUP3 MSTORE PUSH1 0x1 SWAP2 PUSH2 0x40A PUSH1 0xFF DUP5 PUSH1 0x40 PUSH1 0x0 KECCAK256 ADD SLOAD PUSH1 0x8 SHR AND ISZERO PUSH2 0x2BA6 JUMP JUMPDEST DUP4 PUSH1 0x0 MSTORE DUP2 DUP2 MSTORE PUSH2 0x435 PUSH1 0x5 PUSH2 0x42B PUSH2 0x426 PUSH1 0x40 PUSH1 0x0 KECCAK256 PUSH2 0x2341 JUMP JUMPDEST PUSH2 0x22E1 JUMP JUMPDEST ADD SLOAD TIMESTAMP GT ISZERO PUSH2 0x2B5B JUMP JUMPDEST PUSH2 0x440 DUP5 DUP11 CALLER PUSH2 0x26B0 JUMP JUMPDEST PUSH1 0x0 DUP5 DUP2 MSTORE SWAP2 SWAP1 MSTORE PUSH1 0x40 SWAP1 DUP2 SWAP1 KECCAK256 SWAP2 SWAP1 SWAP2 ADD DUP1 SLOAD PUSH2 0xFF00 NOT AND PUSH2 0x100 OR SWAP1 SSTORE DUP1 MLOAD CALLER DUP2 MSTORE PUSH1 0x1 PUSH1 0x1 PUSH1 0xA0 SHL SUB DUP9 AND PUSH1 0x20 DUP3 ADD MSTORE PUSH32 0xD15524263AE66F75C1E604C47DB6085085110F23EF7322B355179AC5E3B0783A SWAP2 DUP2 SWAP1 DUP2 ADD JUMPDEST SUB SWAP1 LOG2 PUSH2 0x2A49 JUMP JUMPDEST PUSH2 0x3B3 JUMP JUMPDEST PUSH1 0x64 DUP4 PUSH1 0x9 PUSH1 0x40 MLOAD SWAP2 PUSH3 0x461BCD PUSH1 0xE5 SHL DUP4 MSTORE PUSH1 0x20 PUSH1 0x4 DUP5 ADD MSTORE DUP3 ADD MSTORE PUSH32 0x4E6F74206F776E65720000000000000000000000000000000000000000000000 PUSH1 0x44 DUP3 ADD MSTORE REVERT JUMPDEST STOP JUMPDEST PUSH1 0x40 CALLDATASIZE PUSH1 0x3 NOT ADD SLT PUSH2 0x1DC JUMPI PUSH1 0x4 CALLDATALOAD PUSH8 0xFFFFFFFFFFFFFFFF DUP2 GT PUSH2 0x1DC JUMPI PUSH2 0x519 SWAP1 CALLDATASIZE SWAP1 PUSH1 0x4 ADD PUSH2 0x2156 JUMP JUMPDEST PUSH1 0x24 DUP1 CALLDATALOAD SWAP1 PUSH1 0x40 MLOAD DUP4 MLOAD SWAP1 PUSH1 0x20 SWAP1 DUP2 DUP2 DUP2 DUP9 ADD SWAP5 PUSH2 0x538 DUP2 DUP4 DUP9 PUSH2 0x2174 JUMP JUMPDEST DUP2 ADD PUSH1 0xA DUP2 MSTORE SUB ADD SWAP1 KECCAK256 SWAP3 PUSH1 0x5 DUP5 ADD SLOAD TIMESTAMP GT PUSH2 0x823 JUMPI PUSH1 0x8 DUP5 ADD SWAP4 PUSH2 0x55E DUP7 DUP7 SLOAD PUSH2 0x2B03 JUMP JUMPDEST PUSH1 0x3 DUP3 ADD SLOAD LT PUSH2 0x7E0 JUMPI PUSH1 0x2 ADD SLOAD DUP6 DUP2 MUL SWAP1 DUP1 DUP3 DIV DUP8 EQ SWAP1 ISZERO OR ISZERO PUSH2 0x7CB JUMPI CALLVALUE SUB PUSH2 0x788 JUMPI PUSH1 0x0 SWAP4 PUSH1 0x0 JUMPDEST PUSH1 0x9 SLOAD DUP2 LT DUP1 PUSH2 0x77F JUMPI JUMPDEST ISZERO PUSH2 0x6F4 JUMPI ADDRESS PUSH1 0x1 PUSH1 0x1 PUSH1 0xA0 SHL SUB PUSH2 0x5AB DUP4 PUSH2 0x248A JUMP JUMPDEST AND EQ DUP1 PUSH2 0x60D JUMPI JUMPDEST PUSH2 0x5C6 JUMPI JUMPDEST PUSH2 0x5C1 SWAP1 PUSH2 0x2A49 JUMP JUMPDEST PUSH2 0x589 JUMP JUMPDEST SWAP5 PUSH2 0x605 PUSH2 0x5C1 SWAP2 PUSH2 0x5D9 DUP9 CALLER ADDRESS PUSH2 0x26B0 JUMP JUMPDEST CALLER DUP9 PUSH32 0x785F2865353AE960010300F584FC6C577B757A853AF69A99C769DF3C8232D3DE PUSH1 0x0 DUP1 LOG3 PUSH2 0x2A49 JUMP JUMPDEST SWAP6 SWAP1 POP PUSH2 0x5B8 JUMP JUMPDEST POP DUP1 PUSH1 0x0 MSTORE PUSH1 0xB DUP5 MSTORE PUSH1 0x40 PUSH1 0x0 KECCAK256 PUSH1 0x40 MLOAD DUP6 DUP2 ADD SWAP2 DUP2 PUSH1 0x0 DUP3 SLOAD PUSH2 0x630 DUP2 PUSH2 0x2307 JUMP JUMPDEST SWAP4 PUSH1 0x1 SWAP2 DUP12 DUP4 DUP3 AND SWAP2 DUP3 PUSH1 0x0 EQ PUSH2 0x6D5 JUMPI POP POP PUSH1 0x1 EQ PUSH2 0x695 JUMPI JUMPDEST POP POP PUSH2 0x660 SWAP3 POP SUB PUSH1 0x1F NOT DUP2 ADD DUP4 MSTORE DUP3 PUSH2 0x20E1 JUMP JUMPDEST MLOAD SWAP1 KECCAK256 DUP6 PUSH1 0x40 MLOAD PUSH2 0x68C DUP8 DUP3 DUP14 PUSH2 0x67F DUP4 DUP4 ADD SWAP7 DUP8 SWAP3 MLOAD SWAP3 DUP4 SWAP2 PUSH2 0x2174 JUMP JUMPDEST DUP2 ADD SUB DUP1 DUP5 MSTORE ADD DUP3 PUSH2 0x20E1 JUMP JUMPDEST MLOAD SWAP1 KECCAK256 EQ PUSH2 0x5B3 JUMP JUMPDEST DUP11 SWAP3 POP PUSH1 0x0 MSTORE DUP2 PUSH1 0x0 KECCAK256 SWAP1 PUSH1 0x0 SWAP2 JUMPDEST DUP6 DUP4 LT PUSH2 0x6BC JUMPI POP POP POP PUSH2 0x660 SWAP3 DUP3 ADD ADD DUP14 DUP1 PUSH2 0x64B JUMP JUMPDEST DUP2 SWAP4 SWAP3 SWAP5 POP DUP1 SLOAD DUP4 DUP7 DUP10 ADD ADD MSTORE ADD SWAP3 ADD DUP10 SWAP2 DUP6 SWAP4 PUSH2 0x6A4 JUMP JUMPDEST SWAP3 POP SWAP4 POP POP PUSH2 0x660 SWAP5 SWAP2 POP PUSH1 0xFF NOT AND DUP7 MSTORE DUP1 ISZERO ISZERO MUL DUP3 ADD ADD DUP14 DUP1 PUSH2 0x64B JUMP JUMPDEST POP SWAP1 SWAP5 DUP1 DUP8 SWAP4 SWAP6 SUB PUSH2 0x73C JUMPI PUSH2 0x723 SWAP6 POP PUSH2 0x710 SWAP1 DUP3 SLOAD PUSH2 0x2B03 JUMP JUMPDEST SWAP1 SSTORE PUSH1 0x40 MLOAD SWAP4 DUP5 SWAP3 DUP4 SWAP3 MLOAD SWAP3 DUP4 SWAP2 PUSH2 0x2174 JUMP JUMPDEST DUP2 ADD PUSH1 0xE DUP2 MSTORE SUB ADD SWAP1 KECCAK256 PUSH2 0x738 CALLVALUE DUP3 SLOAD PUSH2 0x2B03 JUMP JUMPDEST SWAP1 SSTORE STOP JUMPDEST PUSH1 0x64 DUP6 PUSH1 0x1C DUP9 PUSH1 0x40 MLOAD SWAP3 PUSH3 0x461BCD PUSH1 0xE5 SHL DUP5 MSTORE PUSH1 0x4 DUP5 ADD MSTORE DUP3 ADD MSTORE PUSH32 0x4E6F7420656E6F75676820756E636C61696D6564207469636B65747300000000 PUSH1 0x44 DUP3 ADD MSTORE REVERT JUMPDEST POP DUP7 DUP7 LT PUSH2 0x594 JUMP JUMPDEST SWAP1 PUSH1 0x14 PUSH1 0x64 SWAP3 PUSH1 0x40 MLOAD SWAP3 PUSH3 0x461BCD PUSH1 0xE5 SHL DUP5 MSTORE PUSH1 0x4 DUP5 ADD MSTORE DUP3 ADD MSTORE PUSH32 0x496E636F72726563742045544820616D6F756E74000000000000000000000000 PUSH1 0x44 DUP3 ADD MSTORE REVERT JUMPDEST POP PUSH4 0x4E487B71 PUSH1 0xE0 SHL PUSH1 0x0 MSTORE PUSH1 0x11 PUSH1 0x4 MSTORE PUSH1 0x0 REVERT JUMPDEST PUSH1 0x64 DUP4 PUSH1 0x12 DUP5 PUSH1 0x40 MLOAD SWAP3 PUSH3 0x461BCD PUSH1 0xE5 SHL DUP5 MSTORE PUSH1 0x4 DUP5 ADD MSTORE DUP3 ADD MSTORE PUSH32 0x4E6F7420656E6F756768207469636B6574730000000000000000000000000000 PUSH1 0x44 DUP3 ADD MSTORE REVERT JUMPDEST SWAP1 PUSH1 0x19 PUSH1 0x64 SWAP3 PUSH1 0x40 MLOAD SWAP3 PUSH3 0x461BCD PUSH1 0xE5 SHL DUP5 MSTORE PUSH1 0x4 DUP5 ADD MSTORE DUP3 ADD MSTORE PUSH32 0x5469636B65742073616C657320706572696F6420656E64656400000000000000 PUSH1 0x44 DUP3 ADD MSTORE REVERT JUMPDEST CALLVALUE PUSH2 0x1DC JUMPI PUSH1 0x20 CALLDATASIZE PUSH1 0x3 NOT ADD SLT PUSH2 0x1DC JUMPI PUSH2 0x899 PUSH2 0x885 PUSH1 0x4 CALLDATALOAD PUSH2 0x29FF JUMP JUMPDEST PUSH1 0x40 MLOAD SWAP2 DUP3 SWAP2 PUSH1 0x20 DUP4 MSTORE PUSH1 0x20 DUP4 ADD SWAP1 PUSH2 0x2197 JUMP JUMPDEST SUB SWAP1 RETURN JUMPDEST CALLVALUE PUSH2 0x1DC JUMPI PUSH2 0x4EB PUSH2 0x8D6 PUSH2 0x8B1 CALLDATASIZE PUSH2 0x2248 JUMP JUMPDEST SWAP3 PUSH2 0x8C6 PUSH2 0x8C1 DUP4 SWAP5 SWAP4 CALLER PUSH2 0x25D1 JUMP JUMPDEST PUSH2 0x24EE JUMP JUMPDEST PUSH2 0x8D1 DUP4 DUP4 DUP4 PUSH2 0x26B0 JUMP JUMPDEST PUSH2 0x2977 JUMP JUMPDEST PUSH2 0x255F JUMP JUMPDEST CALLVALUE PUSH2 0x1DC JUMPI PUSH1 0x40 CALLDATASIZE PUSH1 0x3 NOT ADD SLT PUSH2 0x1DC JUMPI PUSH2 0x8F4 PUSH2 0x21BC JUMP JUMPDEST PUSH1 0x24 CALLDATALOAD SWAP1 DUP2 ISZERO ISZERO SWAP1 DUP2 DUP4 SUB PUSH2 0x1DC JUMPI PUSH1 0x1 PUSH1 0x1 PUSH1 0xA0 SHL SUB AND SWAP2 DUP3 CALLER EQ PUSH2 0x971 JUMPI PUSH2 0x943 SWAP1 CALLER PUSH1 0x0 MSTORE PUSH1 0x5 PUSH1 0x20 MSTORE PUSH1 0x40 PUSH1 0x0 KECCAK256 DUP5 PUSH1 0x0 MSTORE PUSH1 0x20 MSTORE PUSH1 0x40 PUSH1 0x0 KECCAK256 SWAP1 PUSH1 0xFF DUP1 NOT DUP4 SLOAD AND SWAP2 ISZERO ISZERO AND OR SWAP1 SSTORE JUMP JUMPDEST PUSH1 0x40 MLOAD SWAP1 DUP2 MSTORE PUSH32 0x17307EAB39AB6107E8899845AD3D59BD9653F200F220920489CA2B5937696C31 PUSH1 0x20 CALLER SWAP3 LOG3 STOP JUMPDEST PUSH1 0x64 PUSH1 0x40 MLOAD PUSH3 0x461BCD PUSH1 0xE5 SHL DUP2 MSTORE PUSH1 0x20 PUSH1 0x4 DUP3 ADD MSTORE PUSH1 0x19 PUSH1 0x24 DUP3 ADD MSTORE PUSH32 0x4552433732313A20617070726F766520746F2063616C6C657200000000000000 PUSH1 0x44 DUP3 ADD MSTORE REVERT JUMPDEST CALLVALUE PUSH2 0x1DC JUMPI PUSH1 0x0 CALLDATASIZE PUSH1 0x3 NOT ADD SLT PUSH2 0x1DC JUMPI PUSH1 0x20 PUSH1 0x8 SLOAD PUSH1 0x40 MLOAD SWAP1 DUP2 MSTORE RETURN JUMPDEST CALLVALUE PUSH2 0x1DC JUMPI PUSH1 0x20 CALLDATASIZE PUSH1 0x3 NOT ADD SLT PUSH2 0x1DC JUMPI PUSH1 0x4 CALLDATALOAD PUSH8 0xFFFFFFFFFFFFFFFF DUP2 GT PUSH2 0x1DC JUMPI PUSH2 0xA0C PUSH1 0x20 PUSH2 0x1B6 PUSH2 0x120 SWAP4 CALLDATASIZE SWAP1 PUSH1 0x4 ADD PUSH2 0x2156 JUMP JUMPDEST DUP2 ADD PUSH1 0xA DUP2 MSTORE SUB ADD SWAP1 KECCAK256 DUP1 SLOAD SWAP1 PUSH1 0x1 DUP2 ADD SLOAD SWAP1 PUSH1 0x2 DUP2 ADD SLOAD PUSH1 0x3 DUP3 ADD SLOAD PUSH1 0x4 DUP4 ADD SLOAD PUSH1 0x5 DUP5 ADD SLOAD SWAP2 PUSH1 0x6 DUP6 ADD SLOAD SWAP4 PUSH1 0x8 PUSH1 0x1 PUSH1 0x1 PUSH1 0xA0 SHL SUB PUSH1 0x7 DUP9 ADD SLOAD AND SWAP7 ADD SLOAD SWAP7 PUSH1 0x40 MLOAD SWAP9 DUP10 MSTORE PUSH1 0x20 DUP10 ADD MSTORE PUSH1 0x40 DUP9 ADD MSTORE PUSH1 0x60 DUP8 ADD MSTORE PUSH1 0x80 DUP7 ADD MSTORE PUSH1 0xA0 DUP6 ADD MSTORE PUSH1 0xC0 DUP5 ADD MSTORE PUSH1 0xE0 DUP4 ADD MSTORE PUSH2 0x100 DUP3 ADD MSTORE RETURN JUMPDEST CALLVALUE PUSH2 0x1DC JUMPI PUSH1 0x0 CALLDATASIZE PUSH1 0x3 NOT ADD SLT PUSH2 0x1DC JUMPI PUSH1 0x40 MLOAD PUSH1 0x0 PUSH1 0x1 DUP1 SLOAD SWAP1 PUSH2 0xAA3 DUP3 PUSH2 0x2307 JUMP JUMPDEST DUP1 DUP6 MSTORE SWAP2 DUP2 DUP2 AND SWAP1 DUP2 ISZERO PUSH2 0xB23 JUMPI POP PUSH1 0x1 EQ PUSH2 0xACA JUMPI JUMPDEST PUSH2 0x899 DUP5 PUSH2 0x885 DUP2 DUP7 SUB DUP3 PUSH2 0x20E1 JUMP JUMPDEST PUSH1 0x0 DUP2 DUP2 MSTORE SWAP3 POP PUSH32 0xB10E2D527612073B26EECDFD717E6A320CF44B4AFAC2B0732D9FCBE2B7FA0CF6 JUMPDEST DUP3 DUP5 LT PUSH2 0xB0B JUMPI POP POP POP DUP2 ADD PUSH1 0x20 ADD PUSH2 0x885 DUP3 PUSH2 0xABA JUMP JUMPDEST DUP1 SLOAD PUSH1 0x20 DUP6 DUP8 ADD DUP2 ADD SWAP2 SWAP1 SWAP2 MSTORE SWAP1 SWAP4 ADD SWAP3 DUP2 ADD PUSH2 0xAF3 JUMP JUMPDEST PUSH1 0xFF NOT AND PUSH1 0x20 DUP1 DUP8 ADD SWAP2 SWAP1 SWAP2 MSTORE SWAP3 ISZERO ISZERO PUSH1 0x5 SHL DUP6 ADD SWAP1 SWAP3 ADD SWAP3 POP PUSH2 0x885 SWAP2 POP DUP4 SWAP1 POP PUSH2 0xABA JUMP JUMPDEST CALLVALUE PUSH2 0x1DC JUMPI PUSH1 0x0 CALLDATASIZE PUSH1 0x3 NOT ADD SLT PUSH2 0x1DC JUMPI PUSH1 0x20 PUSH1 0x1 PUSH1 0x1 PUSH1 0xA0 SHL SUB PUSH1 0x7 SLOAD AND PUSH1 0x40 MLOAD SWAP1 DUP2 MSTORE RETURN JUMPDEST CALLVALUE PUSH2 0x1DC JUMPI PUSH1 0x0 CALLDATASIZE PUSH1 0x3 NOT ADD SLT PUSH2 0x1DC JUMPI PUSH2 0xB8A PUSH2 0x23E7 JUMP JUMPDEST PUSH1 0x0 PUSH1 0x1 PUSH1 0x1 PUSH1 0xA0 SHL SUB PUSH1 0x7 SLOAD PUSH1 0x1 PUSH1 0x1 PUSH1 0xA0 SHL SUB NOT DUP2 AND PUSH1 0x7 SSTORE AND PUSH32 0x8BE0079C531659141344CD1FD0A4F28419497F9722A3DAAFE3B4186F6B6457E0 DUP3 DUP1 LOG3 STOP JUMPDEST CALLVALUE PUSH2 0x1DC JUMPI PUSH1 0x20 CALLDATASIZE PUSH1 0x3 NOT ADD SLT PUSH2 0x1DC JUMPI PUSH1 0x1 PUSH1 0x1 PUSH1 0xA0 SHL SUB PUSH2 0xBED PUSH2 0x21BC JUMP JUMPDEST AND DUP1 ISZERO PUSH2 0xC0C JUMPI PUSH1 0x0 MSTORE PUSH1 0x3 PUSH1 0x20 MSTORE PUSH1 0x20 PUSH1 0x40 PUSH1 0x0 KECCAK256 SLOAD PUSH1 0x40 MLOAD SWAP1 DUP2 MSTORE RETURN JUMPDEST PUSH1 0x84 PUSH1 0x40 MLOAD PUSH3 0x461BCD PUSH1 0xE5 SHL DUP2 MSTORE PUSH1 0x20 PUSH1 0x4 DUP3 ADD MSTORE PUSH1 0x29 PUSH1 0x24 DUP3 ADD MSTORE PUSH32 0x4552433732313A2061646472657373207A65726F206973206E6F742061207661 PUSH1 0x44 DUP3 ADD MSTORE PUSH32 0x6C6964206F776E65720000000000000000000000000000000000000000000000 PUSH1 0x64 DUP3 ADD MSTORE REVERT JUMPDEST CALLVALUE PUSH2 0x1DC JUMPI PUSH1 0x20 CALLDATASIZE PUSH1 0x3 NOT ADD SLT PUSH2 0x1DC JUMPI PUSH1 0x20 PUSH2 0xC94 PUSH1 0x4 CALLDATALOAD PUSH2 0x248A JUMP JUMPDEST PUSH1 0x1 PUSH1 0x1 PUSH1 0xA0 SHL SUB PUSH1 0x40 MLOAD SWAP2 AND DUP2 MSTORE RETURN JUMPDEST CALLVALUE PUSH2 0x1DC JUMPI PUSH1 0x0 CALLDATASIZE PUSH1 0x3 NOT ADD SLT PUSH2 0x1DC JUMPI PUSH1 0x20 PUSH1 0x9 SLOAD PUSH1 0x40 MLOAD SWAP1 DUP2 MSTORE RETURN JUMPDEST CALLVALUE PUSH2 0x1DC JUMPI PUSH1 0x20 CALLDATASIZE PUSH1 0x3 NOT ADD SLT PUSH2 0x1DC JUMPI PUSH1 0x4 CALLDATALOAD PUSH1 0x0 MSTORE PUSH1 0xD PUSH1 0x20 MSTORE PUSH1 0x20 PUSH1 0x1 PUSH1 0x1 PUSH1 0xA0 SHL SUB PUSH1 0x40 PUSH1 0x0 KECCAK256 SLOAD AND PUSH1 0x40 MLOAD SWAP1 DUP2 MSTORE RETURN JUMPDEST CALLVALUE PUSH2 0x1DC JUMPI PUSH2 0x120 CALLDATASIZE PUSH1 0x3 NOT ADD SLT PUSH2 0x1DC JUMPI PUSH1 0x4 CALLDATALOAD PUSH8 0xFFFFFFFFFFFFFFFF DUP2 GT PUSH2 0x1DC JUMPI PUSH2 0xD2A SWAP1 CALLDATASIZE SWAP1 PUSH1 0x4 ADD PUSH2 0x2156 JUMP JUMPDEST PUSH2 0x104 CALLDATALOAD PUSH8 0xFFFFFFFFFFFFFFFF DUP2 GT PUSH2 0x1DC JUMPI CALLDATASIZE PUSH1 0x23 DUP3 ADD SLT ISZERO PUSH2 0x1DC JUMPI DUP1 PUSH1 0x4 ADD CALLDATALOAD PUSH2 0xD56 DUP2 PUSH2 0x21D2 JUMP JUMPDEST SWAP2 PUSH2 0xD64 PUSH1 0x40 MLOAD SWAP4 DUP5 PUSH2 0x20E1 JUMP JUMPDEST DUP2 DUP4 MSTORE PUSH1 0x24 PUSH1 0x20 DUP5 ADD SWAP3 PUSH1 0x5 SHL DUP3 ADD ADD SWAP1 CALLDATASIZE DUP3 GT PUSH2 0x1DC JUMPI PUSH1 0x24 DUP2 ADD SWAP3 JUMPDEST DUP3 DUP5 LT PUSH2 0x1549 JUMPI DUP6 DUP6 PUSH1 0x44 CALLDATALOAD PUSH1 0x24 CALLDATALOAD LT ISZERO PUSH2 0x1505 JUMPI PUSH1 0xC4 CALLDATALOAD PUSH1 0xA4 CALLDATALOAD LT ISZERO PUSH2 0x14C1 JUMPI PUSH1 0x64 CALLDATALOAD PUSH1 0xE4 CALLDATALOAD LT PUSH2 0x147D JUMPI PUSH1 0x84 CALLDATALOAD DUP2 MLOAD SUB PUSH2 0x1439 JUMPI PUSH1 0x24 CALLDATALOAD PUSH1 0xC4 CALLDATALOAD GT PUSH2 0x13CF JUMPI PUSH1 0x40 MLOAD DUP1 PUSH2 0x120 DUP2 ADD LT PUSH8 0xFFFFFFFFFFFFFFFF PUSH2 0x120 DUP4 ADD GT OR PUSH2 0x1244 JUMPI DUP1 PUSH2 0x120 DUP5 SWAP3 ADD PUSH1 0x40 MSTORE PUSH1 0x24 CALLDATALOAD DUP2 MSTORE PUSH1 0x44 CALLDATALOAD PUSH1 0x20 DUP3 ADD MSTORE PUSH1 0x64 CALLDATALOAD PUSH1 0x40 DUP3 ADD MSTORE PUSH1 0x84 CALLDATALOAD PUSH1 0x60 DUP3 ADD MSTORE PUSH1 0xA4 CALLDATALOAD PUSH1 0x80 DUP3 ADD MSTORE PUSH1 0xC4 CALLDATALOAD PUSH1 0xA0 DUP3 ADD MSTORE PUSH1 0xE4 CALLDATALOAD PUSH1 0xC0 DUP3 ADD MSTORE CALLER PUSH1 0xE0 DUP3 ADD MSTORE PUSH1 0x0 PUSH2 0x100 DUP3 ADD MSTORE PUSH1 0x8 PUSH2 0x100 PUSH1 0x40 MLOAD PUSH1 0x20 DUP2 DUP7 MLOAD PUSH2 0xE48 DUP2 DUP4 DUP6 DUP12 ADD PUSH2 0x2174 JUMP JUMPDEST DUP2 ADD PUSH1 0xA DUP2 MSTORE SUB ADD SWAP1 KECCAK256 SWAP3 DUP1 MLOAD DUP5 SSTORE PUSH1 0x20 DUP2 ADD MLOAD PUSH1 0x1 DUP6 ADD SSTORE PUSH1 0x40 DUP2 ADD MLOAD PUSH1 0x2 DUP6 ADD SSTORE PUSH1 0x60 DUP2 ADD MLOAD PUSH1 0x3 DUP6 ADD SSTORE PUSH1 0x80 DUP2 ADD MLOAD PUSH1 0x4 DUP6 ADD SSTORE PUSH1 0xA0 DUP2 ADD MLOAD PUSH1 0x5 DUP6 ADD SSTORE PUSH1 0xC0 DUP2 ADD MLOAD PUSH1 0x6 DUP6 ADD SSTORE PUSH1 0x7 DUP5 ADD PUSH1 0x1 PUSH1 0x1 PUSH1 0xA0 SHL SUB PUSH1 0xE0 DUP4 ADD MLOAD AND PUSH1 0x1 PUSH1 0x1 PUSH1 0xA0 SHL SUB NOT DUP3 SLOAD AND OR SWAP1 SSTORE ADD MLOAD SWAP2 ADD SSTORE PUSH1 0x0 SWAP2 JUMPDEST PUSH1 0x84 CALLDATALOAD DUP4 LT PUSH2 0xF06 JUMPI POP PUSH2 0xED1 CALLER SWAP2 PUSH2 0x2A98 JUMP JUMPDEST PUSH32 0x2B20C961D6D0DAF3F50B080228F74D6EB895E4CD1B7EAC76D725EB5C39253345 PUSH1 0x0 DUP1 LOG3 PUSH2 0xF01 PUSH1 0x8 SLOAD PUSH2 0x2A49 JUMP JUMPDEST PUSH1 0x8 SSTORE STOP JUMPDEST PUSH1 0x9 SLOAD SWAP3 PUSH1 0x40 MLOAD PUSH2 0xF16 DUP2 PUSH2 0x20C5 JUMP JUMPDEST PUSH1 0x0 DUP2 MSTORE ADDRESS ISZERO PUSH2 0x138B JUMPI PUSH2 0x8D6 PUSH2 0xFD5 SWAP2 PUSH2 0xF50 PUSH2 0xF4A DUP9 PUSH1 0x0 MSTORE PUSH1 0x2 PUSH1 0x20 MSTORE PUSH1 0x1 PUSH1 0x1 PUSH1 0xA0 SHL SUB PUSH1 0x40 PUSH1 0x0 KECCAK256 SLOAD AND ISZERO ISZERO SWAP1 JUMP JUMPDEST ISZERO PUSH2 0x2AB8 JUMP JUMPDEST PUSH2 0xF73 PUSH2 0xF4A DUP9 PUSH1 0x0 MSTORE PUSH1 0x2 PUSH1 0x20 MSTORE PUSH1 0x1 PUSH1 0x1 PUSH1 0xA0 SHL SUB PUSH1 0x40 PUSH1 0x0 KECCAK256 SLOAD AND ISZERO ISZERO SWAP1 JUMP JUMPDEST ADDRESS PUSH1 0x0 MSTORE PUSH1 0x3 PUSH1 0x20 MSTORE PUSH1 0x40 PUSH1 0x0 KECCAK256 PUSH1 0x1 DUP2 SLOAD ADD SWAP1 SSTORE DUP7 PUSH1 0x0 MSTORE PUSH1 0x2 PUSH1 0x20 MSTORE PUSH1 0x40 PUSH1 0x0 KECCAK256 ADDRESS PUSH1 0x1 PUSH1 0x1 PUSH1 0xA0 SHL SUB NOT DUP3 SLOAD AND OR SWAP1 SSTORE DUP7 ADDRESS PUSH1 0x0 PUSH32 0xDDF252AD1BE2C89B69C2B068FC378DAA952BA7F163C4A11628F55A4DF523B3EF DUP2 DUP1 LOG4 DUP7 ADDRESS PUSH2 0x27D7 JUMP JUMPDEST PUSH2 0xFDF DUP2 DUP4 PUSH2 0x2A6E JUMP JUMPDEST MLOAD PUSH2 0x1000 DUP6 PUSH1 0x0 MSTORE PUSH1 0x2 PUSH1 0x20 MSTORE PUSH1 0x1 PUSH1 0x1 PUSH1 0xA0 SHL SUB PUSH1 0x40 PUSH1 0x0 KECCAK256 SLOAD AND ISZERO ISZERO SWAP1 JUMP JUMPDEST ISZERO PUSH2 0x1321 JUMPI DUP5 PUSH1 0x0 MSTORE PUSH1 0x6 PUSH1 0x20 MSTORE PUSH1 0x40 PUSH1 0x0 KECCAK256 SWAP1 DUP1 MLOAD SWAP1 PUSH8 0xFFFFFFFFFFFFFFFF DUP3 GT PUSH2 0x1244 JUMPI DUP2 SWAP1 PUSH2 0x1032 DUP5 SLOAD PUSH2 0x2307 JUMP JUMPDEST PUSH1 0x1F DUP2 GT PUSH2 0x12D1 JUMPI JUMPDEST POP PUSH1 0x20 SWAP1 PUSH1 0x1F DUP4 GT PUSH1 0x1 EQ PUSH2 0x1265 JUMPI PUSH1 0x0 SWAP3 PUSH2 0x125A JUMPI JUMPDEST POP POP DUP2 PUSH1 0x1 SHL SWAP2 PUSH1 0x0 NOT SWAP1 PUSH1 0x3 SHL SHR NOT AND OR SWAP1 SSTORE JUMPDEST PUSH32 0xF8E1A15ABA9398E019F0B49DF1A4FDE98EE17AE345CB5F6B5E2C27F5033E8CE7 PUSH1 0x20 PUSH1 0x40 MLOAD DUP7 DUP2 MSTORE LOG1 PUSH1 0x40 MLOAD SWAP4 DUP5 PUSH1 0x60 DUP2 ADD LT PUSH8 0xFFFFFFFFFFFFFFFF PUSH1 0x60 DUP8 ADD GT OR PUSH2 0x1244 JUMPI PUSH1 0x60 DUP6 ADD PUSH1 0x40 MSTORE DUP4 DUP6 MSTORE PUSH1 0x0 PUSH1 0x20 DUP7 ADD MSTORE PUSH1 0x0 PUSH1 0x40 DUP7 ADD MSTORE PUSH1 0x0 MSTORE PUSH1 0xB PUSH1 0x20 MSTORE PUSH1 0x40 PUSH1 0x0 KECCAK256 SWAP4 DUP1 MLOAD SWAP5 DUP6 MLOAD PUSH8 0xFFFFFFFFFFFFFFFF DUP2 GT PUSH2 0x1244 JUMPI PUSH2 0x10F2 DUP3 SLOAD PUSH2 0x2307 JUMP JUMPDEST PUSH1 0x1F DUP2 GT PUSH2 0x1200 JUMPI JUMPDEST POP PUSH1 0x20 PUSH1 0x1F DUP3 GT PUSH1 0x1 EQ PUSH2 0x118D JUMPI SWAP2 DUP2 PUSH1 0x1 SWAP3 PUSH1 0x40 SWAP5 PUSH2 0x117B SWAP9 SWAP10 SWAP11 PUSH1 0x0 SWAP3 PUSH2 0x1182 JUMPI JUMPDEST POP POP PUSH1 0x0 NOT PUSH1 0x3 DUP4 SWAP1 SHL SHR NOT AND SWAP1 DUP4 SHL OR DUP2 SSTORE JUMPDEST ADD SWAP2 PUSH2 0x1151 PUSH1 0x20 DUP3 ADD MLOAD ISZERO ISZERO DUP5 SWAP1 PUSH1 0xFF DUP1 NOT DUP4 SLOAD AND SWAP2 ISZERO ISZERO AND OR SWAP1 SSTORE JUMP JUMPDEST ADD MLOAD DUP2 SLOAD PUSH2 0xFF00 NOT AND SWAP1 ISZERO ISZERO PUSH1 0x8 SHL PUSH2 0xFF00 AND OR SWAP1 SSTORE PUSH1 0x9 SLOAD PUSH2 0x1173 SWAP1 PUSH2 0x2A49 JUMP JUMPDEST PUSH1 0x9 SSTORE PUSH2 0x2A49 JUMP JUMPDEST SWAP2 SWAP1 PUSH2 0xEBD JUMP JUMPDEST ADD MLOAD SWAP1 POP DUP11 DUP1 PUSH2 0x111F JUMP JUMPDEST DUP3 PUSH1 0x0 MSTORE PUSH1 0x20 PUSH1 0x0 KECCAK256 SWAP8 PUSH1 0x0 JUMPDEST PUSH1 0x1F NOT DUP5 AND DUP2 LT PUSH2 0x11E8 JUMPI POP DUP3 PUSH2 0x117B SWAP8 SWAP9 SWAP10 PUSH1 0x40 SWAP6 SWAP4 PUSH1 0x1 SWAP6 SWAP4 DUP7 SWAP5 PUSH1 0x1F NOT DUP2 AND LT PUSH2 0x11CF JUMPI JUMPDEST POP POP POP DUP2 SHL ADD DUP2 SSTORE PUSH2 0x1133 JUMP JUMPDEST ADD MLOAD PUSH1 0x0 NOT PUSH1 0xF8 DUP5 PUSH1 0x3 SHL AND SHR NOT AND SWAP1 SSTORE DUP11 DUP1 DUP1 PUSH2 0x11C2 JUMP JUMPDEST DUP3 DUP3 ADD MLOAD DUP11 SSTORE PUSH1 0x1 SWAP1 SWAP10 ADD SWAP9 PUSH1 0x20 SWAP3 DUP4 ADD SWAP3 ADD PUSH2 0x119A JUMP JUMPDEST DUP3 PUSH1 0x0 MSTORE PUSH1 0x20 PUSH1 0x0 KECCAK256 PUSH1 0x1F DUP4 ADD PUSH1 0x5 SHR DUP2 ADD PUSH1 0x20 DUP5 LT PUSH2 0x123D JUMPI JUMPDEST PUSH1 0x1F DUP4 ADD PUSH1 0x5 SHR DUP3 ADD DUP2 LT PUSH2 0x1231 JUMPI POP POP PUSH2 0x10FB JUMP JUMPDEST PUSH1 0x0 DUP2 SSTORE PUSH1 0x1 ADD PUSH2 0x121B JUMP JUMPDEST POP DUP1 PUSH2 0x121B JUMP JUMPDEST PUSH4 0x4E487B71 PUSH1 0xE0 SHL PUSH1 0x0 MSTORE PUSH1 0x41 PUSH1 0x4 MSTORE PUSH1 0x24 PUSH1 0x0 REVERT JUMPDEST ADD MLOAD SWAP1 POP DUP8 DUP1 PUSH2 0x1052 JUMP JUMPDEST SWAP3 POP DUP4 PUSH1 0x0 MSTORE PUSH1 0x20 PUSH1 0x0 KECCAK256 SWAP1 PUSH1 0x0 SWAP4 JUMPDEST PUSH1 0x1F NOT DUP5 AND DUP6 LT PUSH2 0x12B6 JUMPI PUSH1 0x1 SWAP5 POP DUP4 PUSH1 0x1F NOT DUP2 AND LT PUSH2 0x129D JUMPI JUMPDEST POP POP POP DUP2 SHL ADD SWAP1 SSTORE PUSH2 0x1067 JUMP JUMPDEST ADD MLOAD PUSH1 0x0 NOT PUSH1 0xF8 DUP5 PUSH1 0x3 SHL AND SHR NOT AND SWAP1 SSTORE DUP8 DUP1 DUP1 PUSH2 0x1290 JUMP JUMPDEST DUP2 DUP2 ADD MLOAD DUP4 SSTORE PUSH1 0x20 SWAP5 DUP6 ADD SWAP5 PUSH1 0x1 SWAP1 SWAP4 ADD SWAP3 SWAP1 SWAP2 ADD SWAP1 PUSH2 0x1275 JUMP JUMPDEST SWAP1 SWAP2 POP DUP4 PUSH1 0x0 MSTORE PUSH1 0x20 PUSH1 0x0 KECCAK256 PUSH1 0x1F DUP5 ADD PUSH1 0x5 SHR DUP2 ADD PUSH1 0x20 DUP6 LT PUSH2 0x131A JUMPI JUMPDEST SWAP1 DUP5 SWAP4 SWAP3 SWAP2 JUMPDEST PUSH1 0x1F DUP4 ADD PUSH1 0x5 SHR DUP3 ADD DUP2 LT PUSH2 0x130B JUMPI POP POP PUSH2 0x103B JUMP JUMPDEST PUSH1 0x0 DUP2 SSTORE DUP6 SWAP5 POP PUSH1 0x1 ADD PUSH2 0x12F5 JUMP JUMPDEST POP DUP1 PUSH2 0x12EF JUMP JUMPDEST PUSH1 0x84 PUSH1 0x40 MLOAD PUSH3 0x461BCD PUSH1 0xE5 SHL DUP2 MSTORE PUSH1 0x20 PUSH1 0x4 DUP3 ADD MSTORE PUSH1 0x2E PUSH1 0x24 DUP3 ADD MSTORE PUSH32 0x45524337323155524953746F726167653A2055524920736574206F66206E6F6E PUSH1 0x44 DUP3 ADD MSTORE PUSH32 0x6578697374656E7420746F6B656E000000000000000000000000000000000000 PUSH1 0x64 DUP3 ADD MSTORE REVERT JUMPDEST PUSH1 0x64 PUSH1 0x40 MLOAD PUSH3 0x461BCD PUSH1 0xE5 SHL DUP2 MSTORE PUSH1 0x20 PUSH1 0x4 DUP3 ADD MSTORE PUSH1 0x20 PUSH1 0x24 DUP3 ADD MSTORE PUSH32 0x4552433732313A206D696E7420746F20746865207A65726F2061646472657373 PUSH1 0x44 DUP3 ADD MSTORE REVERT JUMPDEST PUSH1 0x84 PUSH1 0x40 MLOAD PUSH3 0x461BCD PUSH1 0xE5 SHL DUP2 MSTORE PUSH1 0x20 PUSH1 0x4 DUP3 ADD MSTORE PUSH1 0x23 PUSH1 0x24 DUP3 ADD MSTORE PUSH32 0x526573616C65206D75737420656E64206265666F7265206576656E7420737461 PUSH1 0x44 DUP3 ADD MSTORE PUSH32 0x7274730000000000000000000000000000000000000000000000000000000000 PUSH1 0x64 DUP3 ADD MSTORE REVERT JUMPDEST PUSH1 0x64 PUSH1 0x40 MLOAD PUSH3 0x461BCD PUSH1 0xE5 SHL DUP2 MSTORE PUSH1 0x20 PUSH1 0x4 DUP3 ADD MSTORE PUSH1 0x1F PUSH1 0x24 DUP3 ADD MSTORE PUSH32 0x546F6B656E55524973206D757374206D61746368206D61785469636B65747300 PUSH1 0x44 DUP3 ADD MSTORE REVERT JUMPDEST PUSH1 0x64 PUSH1 0x40 MLOAD PUSH3 0x461BCD PUSH1 0xE5 SHL DUP2 MSTORE PUSH1 0x20 PUSH1 0x4 DUP3 ADD MSTORE PUSH1 0x18 PUSH1 0x24 DUP3 ADD MSTORE PUSH32 0x436170206D757374203E3D207469636B65742070726963650000000000000000 PUSH1 0x44 DUP3 ADD MSTORE REVERT JUMPDEST PUSH1 0x64 PUSH1 0x40 MLOAD PUSH3 0x461BCD PUSH1 0xE5 SHL DUP2 MSTORE PUSH1 0x20 PUSH1 0x4 DUP3 ADD MSTORE PUSH1 0x15 PUSH1 0x24 DUP3 ADD MSTORE PUSH32 0x496E76616C696420726573616C652077696E646F770000000000000000000000 PUSH1 0x44 DUP3 ADD MSTORE REVERT JUMPDEST PUSH1 0x64 PUSH1 0x40 MLOAD PUSH3 0x461BCD PUSH1 0xE5 SHL DUP2 MSTORE PUSH1 0x20 PUSH1 0x4 DUP3 ADD MSTORE PUSH1 0x12 PUSH1 0x24 DUP3 ADD MSTORE PUSH32 0x496E76616C6964206576656E742074696D650000000000000000000000000000 PUSH1 0x44 DUP3 ADD MSTORE REVERT JUMPDEST DUP4 CALLDATALOAD PUSH8 0xFFFFFFFFFFFFFFFF DUP2 GT PUSH2 0x1DC JUMPI PUSH1 0x20 SWAP2 PUSH2 0x156E DUP4 SWAP3 PUSH1 0x24 CALLDATASIZE SWAP2 DUP8 ADD ADD PUSH2 0x2156 JUMP JUMPDEST DUP2 MSTORE ADD SWAP4 ADD SWAP3 PUSH2 0xD82 JUMP JUMPDEST CALLVALUE PUSH2 0x1DC JUMPI PUSH2 0x4EB PUSH2 0x8D6 PUSH2 0x158D CALLDATASIZE PUSH2 0x22AC JUMP JUMPDEST SWAP1 PUSH1 0x40 MLOAD SWAP3 PUSH2 0x159B DUP5 PUSH2 0x20C5 JUMP JUMPDEST PUSH1 0x0 DUP5 MSTORE PUSH2 0x8C6 PUSH2 0x8C1 DUP5 CALLER PUSH2 0x25D1 JUMP JUMPDEST CALLVALUE PUSH2 0x1DC JUMPI PUSH1 0x20 CALLDATASIZE PUSH1 0x3 NOT ADD SLT PUSH2 0x1DC JUMPI PUSH1 0x4 CALLDATALOAD PUSH2 0x15E0 DUP2 PUSH1 0x0 MSTORE PUSH1 0x2 PUSH1 0x20 MSTORE PUSH1 0x1 PUSH1 0x1 PUSH1 0xA0 SHL SUB PUSH1 0x40 PUSH1 0x0 KECCAK256 SLOAD AND ISZERO ISZERO SWAP1 JUMP JUMPDEST ISZERO PUSH2 0x15F1 JUMPI PUSH2 0x885 PUSH2 0x899 SWAP2 PUSH2 0x29FF JUMP JUMPDEST PUSH1 0x64 PUSH1 0x40 MLOAD PUSH3 0x461BCD PUSH1 0xE5 SHL DUP2 MSTORE PUSH1 0x20 PUSH1 0x4 DUP3 ADD MSTORE PUSH1 0x14 PUSH1 0x24 DUP3 ADD MSTORE PUSH32 0x546F6B656E20646F6573206E6F74206578697374000000000000000000000000 PUSH1 0x44 DUP3 ADD MSTORE REVERT JUMPDEST CALLVALUE PUSH2 0x1DC JUMPI PUSH2 0x4EB PUSH2 0x1646 CALLDATASIZE PUSH2 0x22AC JUMP JUMPDEST SWAP2 PUSH2 0x1654 PUSH2 0x8C1 DUP5 CALLER PUSH2 0x25D1 JUMP JUMPDEST PUSH2 0x26B0 JUMP JUMPDEST CALLVALUE PUSH2 0x1DC JUMPI PUSH1 0x40 CALLDATASIZE PUSH1 0x3 NOT ADD SLT PUSH2 0x1DC JUMPI PUSH1 0x4 CALLDATALOAD PUSH1 0x24 CALLDATALOAD PUSH2 0x168C PUSH2 0x167C DUP4 PUSH2 0x248A JUMP JUMPDEST PUSH1 0x1 PUSH1 0x1 PUSH1 0xA0 SHL SUB AND CALLER EQ PUSH2 0x2B10 JUMP JUMPDEST DUP2 PUSH1 0x0 MSTORE PUSH1 0x20 SWAP1 PUSH1 0xB DUP3 MSTORE PUSH1 0xFF PUSH1 0x1 PUSH1 0x40 PUSH1 0x0 KECCAK256 ADD SLOAD PUSH1 0x8 SHR AND PUSH2 0x1826 JUMPI DUP3 PUSH1 0x0 MSTORE PUSH1 0xB DUP3 MSTORE PUSH2 0x16BF PUSH1 0x40 PUSH1 0x0 KECCAK256 PUSH2 0x2341 JUMP JUMPDEST PUSH1 0x40 MLOAD DUP4 PUSH1 0x4 DUP4 MLOAD SWAP3 DUP3 DUP2 DUP2 DUP8 ADD SWAP6 PUSH2 0x16D9 DUP2 DUP4 DUP10 PUSH2 0x2174 JUMP JUMPDEST DUP2 ADD PUSH1 0xA DUP2 MSTORE SUB ADD SWAP1 KECCAK256 ADD SLOAD TIMESTAMP LT ISZERO SWAP2 DUP3 PUSH2 0x17F6 JUMPI JUMPDEST POP POP SWAP1 POP ISZERO PUSH2 0x17B2 JUMPI DUP3 PUSH1 0x0 MSTORE PUSH1 0xB DUP3 MSTORE PUSH1 0x6 PUSH2 0x1712 PUSH2 0x426 PUSH1 0x40 PUSH1 0x0 KECCAK256 PUSH2 0x2341 JUMP JUMPDEST ADD SLOAD DUP2 GT PUSH2 0x176E JUMPI SWAP1 PUSH32 0x2D8CBEBFD87CB19B7BED949F9C8D5A80D939133966EF331AC575D69160EA0465 SWAP2 DUP4 PUSH1 0x0 MSTORE PUSH1 0xC DUP3 MSTORE DUP1 PUSH1 0x40 PUSH1 0x0 KECCAK256 SSTORE PUSH1 0xD DUP3 MSTORE PUSH1 0x40 PUSH1 0x0 KECCAK256 CALLER PUSH1 0x1 PUSH1 0x1 PUSH1 0xA0 SHL SUB NOT DUP3 SLOAD AND OR SWAP1 SSTORE PUSH1 0x40 MLOAD SWAP1 DUP2 MSTORE LOG2 STOP JUMPDEST PUSH1 0x64 DUP3 PUSH1 0x40 MLOAD SWAP1 PUSH3 0x461BCD PUSH1 0xE5 SHL DUP3 MSTORE PUSH1 0x4 DUP3 ADD MSTORE PUSH1 0x11 PUSH1 0x24 DUP3 ADD MSTORE PUSH32 0x4578636565647320707269636520636170000000000000000000000000000000 PUSH1 0x44 DUP3 ADD MSTORE REVERT JUMPDEST PUSH1 0x64 DUP3 PUSH1 0x40 MLOAD SWAP1 PUSH3 0x461BCD PUSH1 0xE5 SHL DUP3 MSTORE PUSH1 0x4 DUP3 ADD MSTORE PUSH1 0x16 PUSH1 0x24 DUP3 ADD MSTORE PUSH32 0x526573616C65206E6F7420616C6C6F776564206E6F7700000000000000000000 PUSH1 0x44 DUP3 ADD MSTORE REVERT JUMPDEST PUSH2 0x180F SWAP3 POP PUSH1 0x5 SWAP4 PUSH1 0x40 MLOAD SWAP4 DUP5 SWAP3 DUP4 SWAP3 MLOAD SWAP3 DUP4 SWAP2 PUSH2 0x2174 JUMP JUMPDEST DUP2 ADD PUSH1 0xA DUP2 MSTORE SUB ADD SWAP1 KECCAK256 ADD SLOAD TIMESTAMP GT ISZERO DUP1 DUP4 DUP7 PUSH2 0x16EF JUMP JUMPDEST PUSH1 0x64 DUP3 PUSH1 0x40 MLOAD SWAP1 PUSH3 0x461BCD PUSH1 0xE5 SHL DUP3 MSTORE PUSH1 0x4 DUP3 ADD MSTORE PUSH1 0x13 PUSH1 0x24 DUP3 ADD MSTORE PUSH32 0x416C7265616479207265736F6C64206F6E636500000000000000000000000000 PUSH1 0x44 DUP3 ADD MSTORE REVERT JUMPDEST CALLVALUE PUSH2 0x1DC JUMPI PUSH2 0x1878 CALLDATASIZE PUSH2 0x2248 JUMP JUMPDEST POP POP POP POP PUSH1 0x20 PUSH1 0x40 MLOAD PUSH4 0xA85BD01 PUSH1 0xE1 SHL DUP2 MSTORE RETURN JUMPDEST PUSH1 0x20 DUP1 PUSH1 0x3 NOT CALLDATASIZE ADD SLT PUSH2 0x1DC JUMPI PUSH1 0x4 CALLDATALOAD PUSH8 0xFFFFFFFFFFFFFFFF DUP2 GT PUSH2 0x1DC JUMPI PUSH2 0x18BA SWAP1 CALLDATASIZE SWAP1 PUSH1 0x4 ADD PUSH2 0x21EA JUMP JUMPDEST PUSH1 0x0 DUP1 JUMPDEST DUP3 MLOAD DUP3 LT ISZERO PUSH2 0x1995 JUMPI PUSH2 0x18D1 DUP3 DUP5 PUSH2 0x2A6E JUMP JUMPDEST MLOAD DUP1 PUSH1 0x0 MSTORE PUSH1 0xB DUP1 DUP7 MSTORE PUSH2 0x18F0 PUSH1 0x5 PUSH2 0x42B PUSH2 0x426 PUSH1 0x40 PUSH1 0x0 KECCAK256 PUSH2 0x2341 JUMP JUMPDEST DUP2 PUSH1 0x0 MSTORE DUP6 MSTORE PUSH2 0x190E PUSH1 0xFF PUSH1 0x1 PUSH1 0x40 PUSH1 0x0 KECCAK256 ADD SLOAD PUSH1 0x8 SHR AND ISZERO PUSH2 0x2BA6 JUMP JUMPDEST DUP1 PUSH1 0x0 MSTORE PUSH1 0xD DUP6 MSTORE PUSH1 0x1 PUSH1 0x1 PUSH1 0xA0 SHL SUB PUSH1 0x40 PUSH1 0x0 KECCAK256 SLOAD AND ISZERO PUSH2 0x1951 JUMPI PUSH2 0x194B SWAP2 PUSH2 0x1945 SWAP2 PUSH1 0x0 MSTORE PUSH1 0xC DUP7 MSTORE PUSH1 0x40 PUSH1 0x0 KECCAK256 SLOAD SWAP1 PUSH2 0x2B03 JUMP JUMPDEST SWAP2 PUSH2 0x2A49 JUMP JUMPDEST SWAP1 PUSH2 0x18BE JUMP JUMPDEST PUSH1 0x64 DUP6 PUSH1 0x40 MLOAD SWAP1 PUSH3 0x461BCD PUSH1 0xE5 SHL DUP3 MSTORE PUSH1 0x4 DUP3 ADD MSTORE PUSH1 0xA PUSH1 0x24 DUP3 ADD MSTORE PUSH32 0x4E6F74206C697374656400000000000000000000000000000000000000000000 PUSH1 0x44 DUP3 ADD MSTORE REVERT JUMPDEST SWAP1 POP CALLVALUE SUB PUSH2 0x1A92 JUMPI PUSH1 0x0 JUMPDEST DUP2 MLOAD DUP2 LT ISZERO PUSH2 0x4EB JUMPI PUSH2 0x19B3 DUP2 DUP4 PUSH2 0x2A6E JUMP JUMPDEST MLOAD SWAP1 DUP2 PUSH1 0x0 MSTORE PUSH1 0xD SWAP2 DUP3 DUP6 MSTORE PUSH1 0x1 PUSH1 0x1 PUSH1 0xA0 SHL SUB PUSH1 0x40 PUSH1 0x0 KECCAK256 SLOAD AND SWAP3 PUSH1 0xC DUP1 DUP8 MSTORE PUSH1 0x0 DUP1 DUP1 DUP1 PUSH1 0x40 DUP2 KECCAK256 SLOAD PUSH2 0x19E9 DUP9 CALLER DUP13 PUSH2 0x26B0 JUMP JUMPDEST DUP10 DUP3 DUP3 ISZERO PUSH2 0x1A89 JUMPI JUMPDEST CALL ISZERO PUSH2 0x1A7D JUMPI PUSH1 0x0 DUP4 DUP2 MSTORE PUSH1 0xB DUP9 MSTORE PUSH1 0x40 DUP1 DUP3 KECCAK256 PUSH1 0x1 ADD DUP1 SLOAD PUSH2 0xFF00 NOT AND PUSH2 0x100 OR SWAP1 SSTORE SWAP2 DUP9 MSTORE DUP2 DUP2 KECCAK256 DUP2 SWAP1 SSTORE SWAP2 DUP8 MSTORE SWAP1 DUP2 SWAP1 KECCAK256 DUP1 SLOAD PUSH1 0x1 PUSH1 0x1 PUSH1 0xA0 SHL SUB NOT AND SWAP1 SSTORE DUP1 MLOAD PUSH1 0x1 PUSH1 0x1 PUSH1 0xA0 SHL SUB SWAP1 SWAP5 AND DUP5 MSTORE CALLER PUSH1 0x20 DUP6 ADD MSTORE PUSH2 0x1A78 SWAP4 PUSH32 0xDFF62E8C5A691C893351D31DBF7662F327584F2BCE63AFB13783397BD23DD934 SWAP2 DUP2 SWAP1 DUP2 ADD PUSH2 0x49A JUMP JUMPDEST PUSH2 0x19A0 JUMP JUMPDEST PUSH1 0x40 MLOAD RETURNDATASIZE PUSH1 0x0 DUP3 RETURNDATACOPY RETURNDATASIZE SWAP1 REVERT JUMPDEST POP PUSH2 0x8FC PUSH2 0x19F2 JUMP JUMPDEST PUSH1 0x64 DUP3 PUSH1 0x40 MLOAD SWAP1 PUSH3 0x461BCD PUSH1 0xE5 SHL DUP3 MSTORE PUSH1 0x4 DUP3 ADD MSTORE PUSH1 0x13 PUSH1 0x24 DUP3 ADD MSTORE PUSH32 0x496E636F72726563742045544820746F74616C00000000000000000000000000 PUSH1 0x44 DUP3 ADD MSTORE REVERT JUMPDEST CALLVALUE PUSH2 0x1DC JUMPI PUSH1 0x40 CALLDATASIZE PUSH1 0x3 NOT ADD SLT PUSH2 0x1DC JUMPI PUSH2 0x1AEF PUSH2 0x21BC JUMP JUMPDEST PUSH1 0x24 CALLDATALOAD SWAP1 PUSH1 0x1 PUSH1 0x1 PUSH1 0xA0 SHL SUB DUP1 DUP1 PUSH2 0x1B06 DUP6 PUSH2 0x248A JUMP JUMPDEST AND SWAP3 AND SWAP2 DUP1 DUP4 EQ PUSH2 0x1C00 JUMPI DUP1 CALLER EQ SWAP1 DUP2 ISZERO PUSH2 0x1BDB JUMPI JUMPDEST POP ISZERO PUSH2 0x1B71 JUMPI DUP3 PUSH1 0x0 MSTORE PUSH1 0x4 PUSH1 0x20 MSTORE PUSH1 0x40 PUSH1 0x0 KECCAK256 DUP3 PUSH1 0x1 PUSH1 0x1 PUSH1 0xA0 SHL SUB NOT DUP3 SLOAD AND OR SWAP1 SSTORE PUSH2 0x1B49 DUP4 PUSH2 0x248A JUMP JUMPDEST AND PUSH32 0x8C5BE1E5EBEC7D5BD14F71427D1E84F3DD0314C0F7B2291E5B200AC8C7C3B925 PUSH1 0x0 DUP1 LOG4 STOP JUMPDEST PUSH1 0x84 PUSH1 0x40 MLOAD PUSH3 0x461BCD PUSH1 0xE5 SHL DUP2 MSTORE PUSH1 0x20 PUSH1 0x4 DUP3 ADD MSTORE PUSH1 0x3D PUSH1 0x24 DUP3 ADD MSTORE PUSH32 0x4552433732313A20617070726F76652063616C6C6572206973206E6F7420746F PUSH1 0x44 DUP3 ADD MSTORE PUSH32 0x6B656E206F776E6572206F7220617070726F76656420666F7220616C6C000000 PUSH1 0x64 DUP3 ADD MSTORE REVERT JUMPDEST SWAP1 POP PUSH1 0x0 MSTORE PUSH1 0x5 PUSH1 0x20 MSTORE PUSH1 0x40 PUSH1 0x0 KECCAK256 CALLER PUSH1 0x0 MSTORE PUSH1 0x20 MSTORE PUSH1 0xFF PUSH1 0x40 PUSH1 0x0 KECCAK256 SLOAD AND DUP5 PUSH2 0x1B1C JUMP JUMPDEST PUSH1 0x84 PUSH1 0x40 MLOAD PUSH3 0x461BCD PUSH1 0xE5 SHL DUP2 MSTORE PUSH1 0x20 PUSH1 0x4 DUP3 ADD MSTORE PUSH1 0x21 PUSH1 0x24 DUP3 ADD MSTORE PUSH32 0x4552433732313A20617070726F76616C20746F2063757272656E74206F776E65 PUSH1 0x44 DUP3 ADD MSTORE PUSH32 0x7200000000000000000000000000000000000000000000000000000000000000 PUSH1 0x64 DUP3 ADD MSTORE REVERT JUMPDEST CALLVALUE PUSH2 0x1DC JUMPI PUSH1 0x20 CALLDATASIZE PUSH1 0x3 NOT ADD SLT PUSH2 0x1DC JUMPI PUSH1 0x20 PUSH2 0xC94 PUSH1 0x4 CALLDATALOAD PUSH2 0x24AC JUMP JUMPDEST CALLVALUE PUSH2 0x1DC JUMPI PUSH1 0x0 CALLDATASIZE PUSH1 0x3 NOT ADD SLT PUSH2 0x1DC JUMPI PUSH1 0x40 MLOAD PUSH1 0x0 DUP1 SLOAD PUSH2 0x1CA9 DUP2 PUSH2 0x2307 JUMP JUMPDEST DUP1 DUP5 MSTORE SWAP1 PUSH1 0x1 SWAP1 DUP2 DUP2 AND SWAP1 DUP2 ISZERO PUSH2 0xB23 JUMPI POP PUSH1 0x1 EQ PUSH2 0x1CD2 JUMPI PUSH2 0x899 DUP5 PUSH2 0x885 DUP2 DUP7 SUB DUP3 PUSH2 0x20E1 JUMP JUMPDEST PUSH1 0x0 DUP1 DUP1 MSTORE SWAP3 POP PUSH32 0x290DECD9548B62A8D60345A988386FC84BA6BC95484008F6362F93160EF3E563 JUMPDEST DUP3 DUP5 LT PUSH2 0x1D13 JUMPI POP POP POP DUP2 ADD PUSH1 0x20 ADD PUSH2 0x885 DUP3 PUSH2 0xABA JUMP JUMPDEST DUP1 SLOAD PUSH1 0x20 DUP6 DUP8 ADD DUP2 ADD SWAP2 SWAP1 SWAP2 MSTORE SWAP1 SWAP4 ADD SWAP3 DUP2 ADD PUSH2 0x1CFB JUMP JUMPDEST CALLVALUE PUSH2 0x1DC JUMPI PUSH1 0x20 DUP1 PUSH1 0x3 NOT CALLDATASIZE ADD SLT PUSH2 0x1DC JUMPI PUSH1 0x4 CALLDATALOAD SWAP1 PUSH2 0x1D4D PUSH2 0x167C DUP4 PUSH2 0x248A JUMP JUMPDEST DUP2 PUSH1 0x0 MSTORE PUSH1 0xB DUP2 MSTORE PUSH1 0xFF PUSH1 0x1 PUSH1 0x40 PUSH1 0x0 KECCAK256 ADD SLOAD AND PUSH2 0x1DD8 JUMPI PUSH1 0xB SWAP1 DUP3 PUSH1 0x0 MSTORE DUP2 DUP2 MSTORE PUSH2 0x1D99 PUSH1 0x1 PUSH2 0x1D85 DUP4 PUSH2 0x1B6 PUSH1 0x40 PUSH1 0x0 KECCAK256 PUSH2 0x2341 JUMP JUMPDEST DUP2 ADD PUSH1 0xA DUP2 MSTORE SUB ADD SWAP1 KECCAK256 ADD SLOAD TIMESTAMP GT ISZERO PUSH2 0x2B5B JUMP JUMPDEST DUP3 PUSH1 0x0 MSTORE MSTORE PUSH1 0x1 PUSH1 0x40 PUSH1 0x0 KECCAK256 ADD PUSH1 0x1 PUSH1 0xFF NOT DUP3 SLOAD AND OR SWAP1 SSTORE PUSH32 0x57BBCA7D06236724B863845D5AC4A5B2431AB54922F89F8644EC9E837B7B5E04 PUSH1 0x0 DUP1 LOG2 STOP JUMPDEST PUSH1 0x64 SWAP1 PUSH1 0x40 MLOAD SWAP1 PUSH3 0x461BCD PUSH1 0xE5 SHL DUP3 MSTORE PUSH1 0x4 DUP3 ADD MSTORE PUSH1 0x13 PUSH1 0x24 DUP3 ADD MSTORE PUSH32 0x5469636B657420616C7265616479207573656400000000000000000000000000 PUSH1 0x44 DUP3 ADD MSTORE REVERT JUMPDEST CALLVALUE PUSH2 0x1DC JUMPI PUSH1 0x20 DUP1 PUSH1 0x3 NOT CALLDATASIZE ADD SLT PUSH2 0x1DC JUMPI PUSH1 0x4 CALLDATALOAD PUSH8 0xFFFFFFFFFFFFFFFF DUP2 GT PUSH2 0x1DC JUMPI PUSH2 0x1E4E SWAP1 CALLDATASIZE SWAP1 PUSH1 0x4 ADD PUSH2 0x2156 JUMP JUMPDEST SWAP1 PUSH1 0x40 MLOAD SWAP2 PUSH1 0x1 PUSH1 0x1 PUSH1 0xA0 SHL SUB PUSH1 0x7 DUP3 MLOAD SWAP5 DUP5 DUP2 DUP2 DUP7 ADD SWAP8 PUSH2 0x1E71 DUP2 DUP4 DUP12 PUSH2 0x2174 JUMP JUMPDEST DUP2 ADD PUSH1 0xA DUP2 MSTORE SUB ADD SWAP1 KECCAK256 ADD SLOAD AND CALLER SUB PUSH2 0x1F53 JUMPI PUSH1 0x40 MLOAD DUP3 DUP2 DUP4 MLOAD PUSH2 0x1E96 DUP2 DUP4 DUP10 PUSH2 0x2174 JUMP JUMPDEST DUP2 ADD PUSH1 0xE DUP2 MSTORE SUB ADD SWAP1 KECCAK256 SLOAD SWAP3 DUP4 ISZERO PUSH2 0x1F0F JUMPI PUSH2 0x1EC0 DUP4 PUSH1 0x0 SWAP3 PUSH1 0x40 MLOAD DUP1 SWAP4 DUP2 SWAP3 DUP8 MLOAD SWAP3 DUP4 SWAP2 PUSH2 0x2174 JUMP JUMPDEST DUP2 ADD PUSH1 0xE DUP2 MSTORE SUB ADD SWAP1 KECCAK256 SSTORE PUSH1 0x0 DUP1 DUP1 DUP1 DUP7 CALLER DUP3 CALL ISZERO PUSH2 0x1A7D JUMPI PUSH2 0x1F03 PUSH32 0xE3CB88532F06B70336E125FD6950A9F3608941EBC860801FC03A608C5629C4D SWAP2 PUSH2 0x2A98 JUMP JUMPDEST SWAP2 PUSH1 0x40 MLOAD SWAP4 DUP5 MSTORE CALLER SWAP4 LOG3 STOP JUMPDEST PUSH1 0x64 DUP4 PUSH1 0x40 MLOAD SWAP1 PUSH3 0x461BCD PUSH1 0xE5 SHL DUP3 MSTORE PUSH1 0x4 DUP3 ADD MSTORE PUSH1 0x14 PUSH1 0x24 DUP3 ADD MSTORE PUSH32 0x4E6F2066756E647320746F207769746864726177000000000000000000000000 PUSH1 0x44 DUP3 ADD MSTORE REVERT JUMPDEST PUSH1 0x64 DUP3 PUSH1 0x40 MLOAD SWAP1 PUSH3 0x461BCD PUSH1 0xE5 SHL DUP3 MSTORE PUSH1 0x4 DUP3 ADD MSTORE PUSH1 0xF PUSH1 0x24 DUP3 ADD MSTORE PUSH32 0x4E6F74206576656E74206F776E65720000000000000000000000000000000000 PUSH1 0x44 DUP3 ADD MSTORE REVERT JUMPDEST CALLVALUE PUSH2 0x1DC JUMPI PUSH1 0x20 CALLDATASIZE PUSH1 0x3 NOT ADD SLT PUSH2 0x1DC JUMPI PUSH1 0x4 CALLDATALOAD PUSH1 0x0 MSTORE PUSH1 0xC PUSH1 0x20 MSTORE PUSH1 0x20 PUSH1 0x40 PUSH1 0x0 KECCAK256 SLOAD PUSH1 0x40 MLOAD SWAP1 DUP2 MSTORE RETURN JUMPDEST CALLVALUE PUSH2 0x1DC JUMPI PUSH1 0x20 CALLDATASIZE PUSH1 0x3 NOT ADD SLT PUSH2 0x1DC JUMPI PUSH1 0x4 CALLDATALOAD SWAP1 PUSH32 0xFFFFFFFF00000000000000000000000000000000000000000000000000000000 DUP3 AND DUP1 SWAP3 SUB PUSH2 0x1DC JUMPI DUP2 PUSH32 0x4906490600000000000000000000000000000000000000000000000000000000 PUSH1 0x20 SWAP4 EQ SWAP1 DUP2 ISZERO PUSH2 0x2037 JUMPI JUMPDEST POP ISZERO ISZERO DUP2 MSTORE RETURN JUMPDEST PUSH32 0x80AC58CD00000000000000000000000000000000000000000000000000000000 DUP2 EQ SWAP2 POP DUP2 ISZERO PUSH2 0x209B JUMPI JUMPDEST DUP2 ISZERO PUSH2 0x2071 JUMPI JUMPDEST POP DUP4 PUSH2 0x2030 JUMP JUMPDEST PUSH32 0x1FFC9A700000000000000000000000000000000000000000000000000000000 SWAP2 POP EQ DUP4 PUSH2 0x206A JUMP JUMPDEST PUSH32 0x5B5E139F00000000000000000000000000000000000000000000000000000000 DUP2 EQ SWAP2 POP PUSH2 0x2063 JUMP JUMPDEST PUSH1 0x20 DUP2 ADD SWAP1 DUP2 LT PUSH8 0xFFFFFFFFFFFFFFFF DUP3 GT OR PUSH2 0x1244 JUMPI PUSH1 0x40 MSTORE JUMP JUMPDEST SWAP1 PUSH1 0x1F DUP1 NOT SWAP2 ADD AND DUP2 ADD SWAP1 DUP2 LT PUSH8 0xFFFFFFFFFFFFFFFF DUP3 GT OR PUSH2 0x1244 JUMPI PUSH1 0x40 MSTORE JUMP JUMPDEST PUSH8 0xFFFFFFFFFFFFFFFF DUP2 GT PUSH2 0x1244 JUMPI PUSH1 0x1F ADD PUSH1 0x1F NOT AND PUSH1 0x20 ADD SWAP1 JUMP JUMPDEST SWAP3 SWAP2 SWAP3 PUSH2 0x212B DUP3 PUSH2 0x2103 JUMP JUMPDEST SWAP2 PUSH2 0x2139 PUSH1 0x40 MLOAD SWAP4 DUP5 PUSH2 0x20E1 JUMP JUMPDEST DUP3 SWAP5 DUP2 DUP5 MSTORE DUP2 DUP4 ADD GT PUSH2 0x1DC JUMPI DUP3 DUP2 PUSH1 0x20 SWAP4 DUP5 PUSH1 0x0 SWAP7 ADD CALLDATACOPY ADD ADD MSTORE JUMP JUMPDEST SWAP1 DUP1 PUSH1 0x1F DUP4 ADD SLT ISZERO PUSH2 0x1DC JUMPI DUP2 PUSH1 0x20 PUSH2 0x2171 SWAP4 CALLDATALOAD SWAP2 ADD PUSH2 0x211F JUMP JUMPDEST SWAP1 JUMP JUMPDEST PUSH1 0x0 JUMPDEST DUP4 DUP2 LT PUSH2 0x2187 JUMPI POP POP PUSH1 0x0 SWAP2 ADD MSTORE JUMP JUMPDEST DUP2 DUP2 ADD MLOAD DUP4 DUP3 ADD MSTORE PUSH1 0x20 ADD PUSH2 0x2177 JUMP JUMPDEST SWAP1 PUSH1 0x20 SWAP2 PUSH2 0x21B0 DUP2 MLOAD DUP1 SWAP3 DUP2 DUP6 MSTORE DUP6 DUP1 DUP7 ADD SWAP2 ADD PUSH2 0x2174 JUMP JUMPDEST PUSH1 0x1F ADD PUSH1 0x1F NOT AND ADD ADD SWAP1 JUMP JUMPDEST PUSH1 0x4 CALLDATALOAD SWAP1 PUSH1 0x1 PUSH1 0x1 PUSH1 0xA0 SHL SUB DUP3 AND DUP3 SUB PUSH2 0x1DC JUMPI JUMP JUMPDEST PUSH8 0xFFFFFFFFFFFFFFFF DUP2 GT PUSH2 0x1244 JUMPI PUSH1 0x5 SHL PUSH1 0x20 ADD SWAP1 JUMP JUMPDEST DUP2 PUSH1 0x1F DUP3 ADD SLT ISZERO PUSH2 0x1DC JUMPI DUP1 CALLDATALOAD SWAP2 PUSH2 0x2201 DUP4 PUSH2 0x21D2 JUMP JUMPDEST SWAP3 PUSH2 0x220F PUSH1 0x40 MLOAD SWAP5 DUP6 PUSH2 0x20E1 JUMP JUMPDEST DUP1 DUP5 MSTORE PUSH1 0x20 SWAP3 DUP4 DUP1 DUP7 ADD SWAP3 PUSH1 0x5 SHL DUP3 ADD ADD SWAP3 DUP4 GT PUSH2 0x1DC JUMPI DUP4 ADD SWAP1 JUMPDEST DUP3 DUP3 LT PUSH2 0x2239 JUMPI POP POP POP POP SWAP1 JUMP JUMPDEST DUP2 CALLDATALOAD DUP2 MSTORE SWAP1 DUP4 ADD SWAP1 DUP4 ADD PUSH2 0x222B JUMP JUMPDEST SWAP1 PUSH1 0x80 PUSH1 0x3 NOT DUP4 ADD SLT PUSH2 0x1DC JUMPI PUSH1 0x1 PUSH1 0x1 PUSH1 0xA0 SHL SUB SWAP2 PUSH1 0x4 CALLDATALOAD DUP4 DUP2 AND DUP2 SUB PUSH2 0x1DC JUMPI SWAP3 PUSH1 0x24 CALLDATALOAD SWAP1 DUP2 AND DUP2 SUB PUSH2 0x1DC JUMPI SWAP2 PUSH1 0x44 CALLDATALOAD SWAP2 PUSH1 0x64 CALLDATALOAD SWAP1 PUSH8 0xFFFFFFFFFFFFFFFF DUP3 GT PUSH2 0x1DC JUMPI DUP1 PUSH1 0x23 DUP4 ADD SLT ISZERO PUSH2 0x1DC JUMPI DUP2 PUSH1 0x24 PUSH2 0x2171 SWAP4 PUSH1 0x4 ADD CALLDATALOAD SWAP2 ADD PUSH2 0x211F JUMP JUMPDEST PUSH1 0x60 SWAP1 PUSH1 0x3 NOT ADD SLT PUSH2 0x1DC JUMPI PUSH1 0x1 PUSH1 0x1 PUSH1 0xA0 SHL SUB SWAP1 PUSH1 0x4 CALLDATALOAD DUP3 DUP2 AND DUP2 SUB PUSH2 0x1DC JUMPI SWAP2 PUSH1 0x24 CALLDATALOAD SWAP1 DUP2 AND DUP2 SUB PUSH2 0x1DC JUMPI SWAP1 PUSH1 0x44 CALLDATALOAD SWAP1 JUMP JUMPDEST PUSH1 0x20 PUSH2 0x22FA SWAP2 DUP2 PUSH1 0x40 MLOAD SWAP4 DUP3 DUP6 DUP1 SWAP5 MLOAD SWAP4 DUP5 SWAP3 ADD PUSH2 0x2174 JUMP JUMPDEST DUP2 ADD PUSH1 0xA DUP2 MSTORE SUB ADD SWAP1 KECCAK256 SWAP1 JUMP JUMPDEST SWAP1 PUSH1 0x1 DUP3 DUP2 SHR SWAP3 AND DUP1 ISZERO PUSH2 0x2337 JUMPI JUMPDEST PUSH1 0x20 DUP4 LT EQ PUSH2 0x2321 JUMPI JUMP JUMPDEST PUSH4 0x4E487B71 PUSH1 0xE0 SHL PUSH1 0x0 MSTORE PUSH1 0x22 PUSH1 0x4 MSTORE PUSH1 0x24 PUSH1 0x0 REVERT JUMPDEST SWAP2 PUSH1 0x7F AND SWAP2 PUSH2 0x2316 JUMP JUMPDEST SWAP1 PUSH1 0x40 MLOAD SWAP2 DUP3 PUSH1 0x0 DUP3 SLOAD SWAP3 PUSH2 0x2355 DUP5 PUSH2 0x2307 JUMP JUMPDEST SWAP1 DUP2 DUP5 MSTORE PUSH1 0x1 SWAP5 DUP6 DUP2 AND SWAP1 DUP2 PUSH1 0x0 EQ PUSH2 0x23C4 JUMPI POP PUSH1 0x1 EQ PUSH2 0x2381 JUMPI JUMPDEST POP POP PUSH2 0x237F SWAP3 POP SUB DUP4 PUSH2 0x20E1 JUMP JUMPDEST JUMP JUMPDEST SWAP1 SWAP4 SWAP2 POP PUSH1 0x0 MSTORE PUSH1 0x20 SWAP1 DUP2 PUSH1 0x0 KECCAK256 SWAP4 PUSH1 0x0 SWAP2 JUMPDEST DUP2 DUP4 LT PUSH2 0x23AC JUMPI POP POP PUSH2 0x237F SWAP4 POP DUP3 ADD ADD CODESIZE DUP1 PUSH2 0x2371 JUMP JUMPDEST DUP6 SLOAD DUP9 DUP5 ADD DUP6 ADD MSTORE SWAP5 DUP6 ADD SWAP5 DUP8 SWAP5 POP SWAP2 DUP4 ADD SWAP2 PUSH2 0x2394 JUMP JUMPDEST SWAP2 POP POP PUSH2 0x237F SWAP5 POP PUSH1 0x20 SWAP3 POP PUSH1 0xFF NOT AND DUP3 DUP5 ADD MSTORE ISZERO ISZERO PUSH1 0x5 SHL DUP3 ADD ADD CODESIZE DUP1 PUSH2 0x2371 JUMP JUMPDEST PUSH1 0x1 PUSH1 0x1 PUSH1 0xA0 SHL SUB PUSH1 0x7 SLOAD AND CALLER SUB PUSH2 0x23FB JUMPI JUMP JUMPDEST PUSH1 0x64 PUSH1 0x40 MLOAD PUSH3 0x461BCD PUSH1 0xE5 SHL DUP2 MSTORE PUSH1 0x20 PUSH1 0x4 DUP3 ADD MSTORE PUSH1 0x20 PUSH1 0x24 DUP3 ADD MSTORE PUSH32 0x4F776E61626C653A2063616C6C6572206973206E6F7420746865206F776E6572 PUSH1 0x44 DUP3 ADD MSTORE REVERT JUMPDEST ISZERO PUSH2 0x2446 JUMPI JUMP JUMPDEST PUSH1 0x64 PUSH1 0x40 MLOAD PUSH3 0x461BCD PUSH1 0xE5 SHL DUP2 MSTORE PUSH1 0x20 PUSH1 0x4 DUP3 ADD MSTORE PUSH1 0x18 PUSH1 0x24 DUP3 ADD MSTORE PUSH32 0x4552433732313A20696E76616C696420746F6B656E2049440000000000000000 PUSH1 0x44 DUP3 ADD MSTORE REVERT JUMPDEST PUSH1 0x0 MSTORE PUSH1 0x2 PUSH1 0x20 MSTORE PUSH1 0x1 PUSH1 0x1 PUSH1 0xA0 SHL SUB PUSH1 0x40 PUSH1 0x0 KECCAK256 SLOAD AND PUSH2 0x2171 DUP2 ISZERO ISZERO PUSH2 0x243F JUMP JUMPDEST PUSH2 0x24D4 PUSH2 0x24CF DUP3 PUSH1 0x0 MSTORE PUSH1 0x2 PUSH1 0x20 MSTORE PUSH1 0x1 PUSH1 0x1 PUSH1 0xA0 SHL SUB PUSH1 0x40 PUSH1 0x0 KECCAK256 SLOAD AND ISZERO ISZERO SWAP1 JUMP JUMPDEST PUSH2 0x243F JUMP JUMPDEST PUSH1 0x0 MSTORE PUSH1 0x4 PUSH1 0x20 MSTORE PUSH1 0x1 PUSH1 0x1 PUSH1 0xA0 SHL SUB PUSH1 0x40 PUSH1 0x0 KECCAK256 SLOAD AND SWAP1 JUMP JUMPDEST ISZERO PUSH2 0x24F5 JUMPI JUMP JUMPDEST PUSH1 0x84 PUSH1 0x40 MLOAD PUSH3 0x461BCD PUSH1 0xE5 SHL DUP2 MSTORE PUSH1 0x20 PUSH1 0x4 DUP3 ADD MSTORE PUSH1 0x2D PUSH1 0x24 DUP3 ADD MSTORE PUSH32 0x4552433732313A2063616C6C6572206973206E6F7420746F6B656E206F776E65 PUSH1 0x44 DUP3 ADD MSTORE PUSH32 0x72206F7220617070726F76656400000000000000000000000000000000000000 PUSH1 0x64 DUP3 ADD MSTORE REVERT JUMPDEST ISZERO PUSH2 0x2566 JUMPI JUMP JUMPDEST PUSH1 0x40 MLOAD PUSH3 0x461BCD PUSH1 0xE5 SHL DUP2 MSTORE PUSH1 0x20 PUSH1 0x4 DUP3 ADD MSTORE PUSH1 0x32 PUSH1 0x24 DUP3 ADD MSTORE PUSH32 0x4552433732313A207472616E7366657220746F206E6F6E204552433732315265 PUSH1 0x44 DUP3 ADD MSTORE PUSH32 0x63656976657220696D706C656D656E7465720000000000000000000000000000 PUSH1 0x64 DUP3 ADD MSTORE PUSH1 0x84 SWAP1 REVERT JUMPDEST SWAP1 PUSH1 0x1 PUSH1 0x1 PUSH1 0xA0 SHL SUB DUP1 DUP1 PUSH2 0x25E5 DUP5 PUSH2 0x248A JUMP JUMPDEST AND SWAP4 AND SWAP2 DUP4 DUP4 EQ SWAP4 DUP5 ISZERO PUSH2 0x2618 JUMPI JUMPDEST POP DUP4 ISZERO PUSH2 0x2602 JUMPI JUMPDEST POP POP POP SWAP1 JUMP JUMPDEST PUSH2 0x260E SWAP2 SWAP3 SWAP4 POP PUSH2 0x24AC JUMP JUMPDEST AND EQ CODESIZE DUP1 DUP1 PUSH2 0x25FC JUMP JUMPDEST SWAP1 SWAP4 POP PUSH1 0x0 MSTORE PUSH1 0x5 PUSH1 0x20 MSTORE PUSH1 0x40 PUSH1 0x0 KECCAK256 DUP3 PUSH1 0x0 MSTORE PUSH1 0x20 MSTORE PUSH1 0xFF PUSH1 0x40 PUSH1 0x0 KECCAK256 SLOAD AND SWAP3 CODESIZE PUSH2 0x25F4 JUMP JUMPDEST ISZERO PUSH2 0x2646 JUMPI JUMP JUMPDEST PUSH1 0x84 PUSH1 0x40 MLOAD PUSH3 0x461BCD PUSH1 0xE5 SHL DUP2 MSTORE PUSH1 0x20 PUSH1 0x4 DUP3 ADD MSTORE PUSH1 0x25 PUSH1 0x24 DUP3 ADD MSTORE PUSH32 0x4552433732313A207472616E736665722066726F6D20696E636F727265637420 PUSH1 0x44 DUP3 ADD MSTORE PUSH32 0x6F776E6572000000000000000000000000000000000000000000000000000000 PUSH1 0x64 DUP3 ADD MSTORE REVERT JUMPDEST SWAP1 PUSH2 0x26D8 SWAP2 PUSH2 0x26BE DUP5 PUSH2 0x248A JUMP JUMPDEST SWAP2 PUSH1 0x1 PUSH1 0x1 PUSH1 0xA0 SHL SUB SWAP4 DUP5 SWAP4 DUP5 DUP1 SWAP5 AND SWAP5 DUP6 SWAP2 AND EQ PUSH2 0x263F JUMP JUMPDEST AND SWAP2 DUP3 ISZERO PUSH2 0x276E JUMPI DUP2 PUSH2 0x26F5 SWAP2 PUSH2 0x26EE DUP7 PUSH2 0x248A JUMP JUMPDEST AND EQ PUSH2 0x263F JUMP JUMPDEST PUSH32 0xDDF252AD1BE2C89B69C2B068FC378DAA952BA7F163C4A11628F55A4DF523B3EF PUSH1 0x0 DUP5 DUP2 MSTORE PUSH1 0x4 PUSH1 0x20 MSTORE PUSH1 0x40 DUP2 KECCAK256 PUSH1 0x1 PUSH1 0x1 PUSH1 0xA0 SHL SUB NOT SWAP1 DUP2 DUP2 SLOAD AND SWAP1 SSTORE DUP4 DUP3 MSTORE PUSH1 0x3 PUSH1 0x20 MSTORE PUSH1 0x40 DUP3 KECCAK256 PUSH1 0x0 NOT DUP2 SLOAD ADD SWAP1 SSTORE DUP5 DUP3 MSTORE PUSH1 0x40 DUP3 KECCAK256 PUSH1 0x1 DUP2 SLOAD ADD SWAP1 SSTORE DUP6 DUP3 MSTORE PUSH1 0x2 PUSH1 0x20 MSTORE DUP5 PUSH1 0x40 DUP4 KECCAK256 SWAP2 DUP3 SLOAD AND OR SWAP1 SSTORE DUP1 LOG4 JUMP JUMPDEST PUSH1 0x84 PUSH1 0x40 MLOAD PUSH3 0x461BCD PUSH1 0xE5 SHL DUP2 MSTORE PUSH1 0x20 PUSH1 0x4 DUP3 ADD MSTORE PUSH1 0x24 DUP1 DUP3 ADD MSTORE PUSH32 0x4552433732313A207472616E7366657220746F20746865207A65726F20616464 PUSH1 0x44 DUP3 ADD MSTORE PUSH32 0x7265737300000000000000000000000000000000000000000000000000000000 PUSH1 0x64 DUP3 ADD MSTORE REVERT JUMPDEST SWAP2 SWAP3 SWAP1 SWAP2 DUP1 EXTCODESIZE ISZERO PUSH2 0x296E JUMPI PUSH2 0x282C SWAP4 PUSH1 0x40 MLOAD SWAP1 DUP2 PUSH4 0xA85BD01 PUSH1 0xE1 SHL SWAP4 DUP5 DUP3 MSTORE CALLER PUSH1 0x4 DUP4 ADD MSTORE PUSH1 0x0 SWAP7 DUP8 PUSH1 0x24 DUP5 ADD MSTORE PUSH1 0x44 DUP4 ADD MSTORE PUSH1 0x80 PUSH1 0x64 DUP4 ADD MSTORE DUP2 DUP8 PUSH1 0x1 PUSH1 0x1 PUSH1 0xA0 SHL SUB DUP3 PUSH1 0x20 SWAP12 DUP13 SWAP8 PUSH1 0x84 DUP4 ADD SWAP1 PUSH2 0x2197 JUMP JUMPDEST SUB SWAP4 AND GAS CALL DUP5 SWAP2 DUP2 PUSH2 0x2912 JUMPI JUMPDEST POP PUSH2 0x28E9 JUMPI POP POP POP RETURNDATASIZE PUSH1 0x0 EQ PUSH2 0x28E1 JUMPI RETURNDATASIZE PUSH2 0x2853 DUP2 PUSH2 0x2103 JUMP JUMPDEST SWAP1 PUSH2 0x2861 PUSH1 0x40 MLOAD SWAP3 DUP4 PUSH2 0x20E1 JUMP JUMPDEST DUP2 MSTORE DUP1 SWAP2 DUP4 RETURNDATASIZE SWAP3 ADD RETURNDATACOPY JUMPDEST DUP1 MLOAD SWAP2 DUP3 PUSH2 0x28DE JUMPI PUSH1 0x40 MLOAD PUSH3 0x461BCD PUSH1 0xE5 SHL DUP2 MSTORE PUSH1 0x20 PUSH1 0x4 DUP3 ADD MSTORE PUSH1 0x32 PUSH1 0x24 DUP3 ADD MSTORE PUSH32 0x4552433732313A207472616E7366657220746F206E6F6E204552433732315265 PUSH1 0x44 DUP3 ADD MSTORE PUSH32 0x63656976657220696D706C656D656E7465720000000000000000000000000000 PUSH1 0x64 DUP3 ADD MSTORE PUSH1 0x84 SWAP1 REVERT JUMPDEST ADD REVERT JUMPDEST POP PUSH1 0x60 PUSH2 0x286B JUMP JUMPDEST PUSH32 0xFFFFFFFF00000000000000000000000000000000000000000000000000000000 AND EQ SWAP3 POP SWAP1 POP JUMP JUMPDEST SWAP1 SWAP2 POP DUP6 DUP2 DUP2 RETURNDATASIZE DUP4 GT PUSH2 0x2967 JUMPI JUMPDEST PUSH2 0x292A DUP2 DUP4 PUSH2 0x20E1 JUMP JUMPDEST DUP2 ADD SUB SLT PUSH2 0x2963 JUMPI MLOAD PUSH32 0xFFFFFFFF00000000000000000000000000000000000000000000000000000000 DUP2 AND DUP2 SUB PUSH2 0x2963 JUMPI SWAP1 CODESIZE PUSH2 0x2839 JUMP JUMPDEST DUP5 DUP1 REVERT JUMPDEST POP RETURNDATASIZE PUSH2 0x2920 JUMP JUMPDEST POP SWAP2 POP POP PUSH1 0x1 SWAP1 JUMP JUMPDEST SWAP3 SWAP4 SWAP2 SWAP1 DUP1 EXTCODESIZE ISZERO PUSH2 0x29F5 JUMPI PUSH2 0x29CA SWAP5 PUSH1 0x40 MLOAD DUP1 SWAP3 PUSH4 0xA85BD01 PUSH1 0xE1 SHL SWAP5 DUP6 DUP4 MSTORE CALLER PUSH1 0x4 DUP5 ADD MSTORE PUSH1 0x1 PUSH1 0x1 PUSH1 0xA0 SHL SUB DUP1 SWAP9 AND PUSH1 0x24 DUP5 ADD MSTORE PUSH1 0x44 DUP4 ADD MSTORE PUSH1 0x80 PUSH1 0x64 DUP4 ADD MSTORE DUP2 DUP1 PUSH1 0x20 SWAP10 DUP11 SWAP6 PUSH1 0x84 DUP4 ADD SWAP1 PUSH2 0x2197 JUMP JUMPDEST SUB SWAP2 PUSH1 0x0 SWAP9 DUP10 SWAP2 AND GAS CALL DUP5 SWAP2 DUP2 PUSH2 0x2912 JUMPI POP PUSH2 0x28E9 JUMPI POP POP POP RETURNDATASIZE PUSH1 0x0 EQ PUSH2 0x28E1 JUMPI RETURNDATASIZE PUSH2 0x2853 DUP2 PUSH2 0x2103 JUMP JUMPDEST POP POP SWAP2 POP POP PUSH1 0x1 SWAP1 JUMP JUMPDEST PUSH2 0x2A22 PUSH2 0x24CF DUP3 PUSH1 0x0 MSTORE PUSH1 0x2 PUSH1 0x20 MSTORE PUSH1 0x1 PUSH1 0x1 PUSH1 0xA0 SHL SUB PUSH1 0x40 PUSH1 0x0 KECCAK256 SLOAD AND ISZERO ISZERO SWAP1 JUMP JUMPDEST PUSH1 0x0 MSTORE PUSH1 0x6 PUSH1 0x20 MSTORE PUSH2 0x2A37 PUSH1 0x40 PUSH1 0x0 KECCAK256 PUSH2 0x2341 JUMP JUMPDEST PUSH1 0x0 PUSH1 0x40 MLOAD PUSH2 0x2A45 DUP2 PUSH2 0x20C5 JUMP JUMPDEST MSTORE SWAP1 JUMP JUMPDEST PUSH1 0x0 NOT DUP2 EQ PUSH2 0x2A58 JUMPI PUSH1 0x1 ADD SWAP1 JUMP JUMPDEST PUSH4 0x4E487B71 PUSH1 0xE0 SHL PUSH1 0x0 MSTORE PUSH1 0x11 PUSH1 0x4 MSTORE PUSH1 0x24 PUSH1 0x0 REVERT JUMPDEST DUP1 MLOAD DUP3 LT ISZERO PUSH2 0x2A82 JUMPI PUSH1 0x20 SWAP2 PUSH1 0x5 SHL ADD ADD SWAP1 JUMP JUMPDEST PUSH4 0x4E487B71 PUSH1 0xE0 SHL PUSH1 0x0 MSTORE PUSH1 0x32 PUSH1 0x4 MSTORE PUSH1 0x24 PUSH1 0x0 REVERT JUMPDEST PUSH2 0x2AB0 SWAP1 PUSH1 0x20 PUSH1 0x40 MLOAD SWAP3 DUP3 DUP5 DUP1 SWAP5 MLOAD SWAP4 DUP5 SWAP3 ADD PUSH2 0x2174 JUMP JUMPDEST DUP2 ADD SUB SWAP1 KECCAK256 SWAP1 JUMP JUMPDEST ISZERO PUSH2 0x2ABF JUMPI JUMP JUMPDEST PUSH1 0x64 PUSH1 0x40 MLOAD PUSH3 0x461BCD PUSH1 0xE5 SHL DUP2 MSTORE PUSH1 0x20 PUSH1 0x4 DUP3 ADD MSTORE PUSH1 0x1C PUSH1 0x24 DUP3 ADD MSTORE PUSH32 0x4552433732313A20746F6B656E20616C7265616479206D696E74656400000000 PUSH1 0x44 DUP3 ADD MSTORE REVERT JUMPDEST SWAP2 SWAP1 DUP3 ADD DUP1 SWAP3 GT PUSH2 0x2A58 JUMPI JUMP JUMPDEST ISZERO PUSH2 0x2B17 JUMPI JUMP JUMPDEST PUSH1 0x64 PUSH1 0x40 MLOAD PUSH3 0x461BCD PUSH1 0xE5 SHL DUP2 MSTORE PUSH1 0x20 PUSH1 0x4 DUP3 ADD MSTORE PUSH1 0x10 PUSH1 0x24 DUP3 ADD MSTORE PUSH32 0x4E6F74207469636B6574206F776E657200000000000000000000000000000000 PUSH1 0x44 DUP3 ADD MSTORE REVERT JUMPDEST ISZERO PUSH2 0x2B62 JUMPI JUMP JUMPDEST PUSH1 0x64 PUSH1 0x40 MLOAD PUSH3 0x461BCD PUSH1 0xE5 SHL DUP2 MSTORE PUSH1 0x20 PUSH1 0x4 DUP3 ADD MSTORE PUSH1 0x12 PUSH1 0x24 DUP3 ADD MSTORE PUSH32 0x5469636B65742068617320657870697265640000000000000000000000000000 PUSH1 0x44 DUP3 ADD MSTORE REVERT JUMPDEST ISZERO PUSH2 0x2BAD JUMPI JUMP JUMPDEST PUSH1 0x64 PUSH1 0x40 MLOAD PUSH3 0x461BCD PUSH1 0xE5 SHL DUP2 MSTORE PUSH1 0x20 PUSH1 0x4 DUP3 ADD MSTORE PUSH1 0xE PUSH1 0x24 DUP3 ADD MSTORE PUSH32 0x416C7265616479207265736F6C64000000000000000000000000000000000000 PUSH1 0x44 DUP3 ADD MSTORE REVERT INVALID LOG2 PUSH5 0x6970667358 0x22 SLT KECCAK256 0x4D SWAP7 PUSH1 0x53 ADD JUMPDEST RETURN 0xFC 0xB6 PUSH10 0x70ABB2614FA4C8B002E0 0xEC 0x1F 0xE6 PUSH4 0x9CB21E2D DUP4 0xAF 0xC2 ADD PUSH5 0x736F6C6343 STOP ADDMOD EQ STOP CALLER "
        },
        "methodIdentifiers": {
          "approve(address,uint256)": "095ea7b3",
          "balanceOf(address)": "70a08231",
          "buyResaleTickets(uint256[])": "14d2c6d1",
          "buyTickets(string,uint256)": "cd11d3fe",
          "createEvent(string,uint256,uint256,uint256,uint256,uint256,uint256,uint256,string[])": "4540a396",
          "eventProceeds(string)": "fb77ce94",
          "events(string)": "9673d6a3",
          "getApproved(uint256)": "081812fc",
          "getTokenURI(uint256)": "3bb3a24d",
          "isApprovedForAll(address,address)": "e985e9c5",
          "listForResale(uint256,uint256)": "1f7d863c",
          "name()": "06fdde03",
          "nextEventId()": "9f9d903a",
          "nextTicketId()": "6031a52f",
          "onERC721Received(address,address,uint256,bytes)": "150b7a02",
          "owner()": "8da5cb5b",
          "ownerOf(uint256)": "6352211e",
          "renounceOwnership()": "715018a6",
          "resalePrice(uint256)": "0384ca49",
          "resaleSeller(uint256)": "49f28eca",
          "safeTransferFrom(address,address,uint256)": "42842e0e",
          "safeTransferFrom(address,address,uint256,bytes)": "b88d4fde",
          "setApprovalForAll(address,bool)": "a22cb465",
          "supportsInterface(bytes4)": "01ffc9a7",
          "symbol()": "95d89b41",
          "ticketMetadata(uint256)": "ea05fc51",
          "tokenURI(uint256)": "c87b56dd",
          "transferFrom(address,address,uint256)": "23b872dd",
          "transferOwnership(address)": "f2fde38b",
          "transferTickets(address,uint256[])": "d5797622",
          "validateTicket(uint256)": "054ae7df",
          "withdrawEventProceeds(string)": "0415792e"
        }
      }
    }
  }
}